{
  "address": "0xeb4E2f45C8aC16E05F02E6E3fbcCF592FA3EE0Bf",
  "abi": [
    {
      "inputs": [],
      "stateMutability": "nonpayable",
      "type": "constructor"
    },
    {
      "inputs": [],
      "name": "admin",
      "outputs": [
        {
          "internalType": "address",
          "name": "",
          "type": "address"
        }
      ],
      "stateMutability": "view",
      "type": "function"
    },
    {
      "inputs": [],
      "name": "checkRegistered",
      "outputs": [
        {
          "internalType": "address",
          "name": "",
          "type": "address"
        }
      ],
      "stateMutability": "view",
      "type": "function"
    },
    {
      "inputs": [
        {
          "internalType": "string",
          "name": "_productName",
          "type": "string"
        },
        {
          "internalType": "string",
          "name": "_productDescription",
          "type": "string"
        },
        {
          "internalType": "string[]",
          "name": "_productImages",
          "type": "string[]"
        },
        {
          "internalType": "uint256",
          "name": "_sessionDuration",
          "type": "uint256"
        }
      ],
      "name": "createNewSession",
      "outputs": [
        {
          "internalType": "contract Session",
          "name": "",
          "type": "address"
        }
      ],
      "stateMutability": "nonpayable",
      "type": "function"
    },
    {
      "inputs": [],
      "name": "getParticipant",
      "outputs": [
        {
          "components": [
            {
              "internalType": "address",
              "name": "account",
              "type": "address"
            },
            {
              "internalType": "string",
              "name": "fullName",
              "type": "string"
            },
            {
              "internalType": "string",
              "name": "email",
              "type": "string"
            },
            {
              "internalType": "uint256",
              "name": "numberOfJoinedSession",
              "type": "uint256"
            },
            {
              "internalType": "uint256",
              "name": "deviation",
              "type": "uint256"
            }
          ],
          "internalType": "struct Participant",
          "name": "",
          "type": "tuple"
        }
      ],
      "stateMutability": "view",
      "type": "function"
    },
    {
      "inputs": [],
      "name": "getParticipants",
      "outputs": [
        {
          "components": [
            {
              "internalType": "address",
              "name": "account",
              "type": "address"
            },
            {
              "internalType": "string",
              "name": "fullName",
              "type": "string"
            },
            {
              "internalType": "string",
              "name": "email",
              "type": "string"
            },
            {
              "internalType": "uint256",
              "name": "numberOfJoinedSession",
              "type": "uint256"
            },
            {
              "internalType": "uint256",
              "name": "deviation",
              "type": "uint256"
            }
          ],
          "internalType": "struct Participant[]",
          "name": "",
          "type": "tuple[]"
        }
      ],
      "stateMutability": "view",
      "type": "function"
    },
    {
      "inputs": [],
      "name": "getSessions",
      "outputs": [
        {
          "components": [
            {
              "internalType": "address",
              "name": "sessionAddress",
              "type": "address"
            },
            {
              "internalType": "string",
              "name": "productName",
              "type": "string"
            },
            {
              "internalType": "string",
              "name": "productDescription",
              "type": "string"
            },
            {
              "internalType": "string[]",
              "name": "productImages",
              "type": "string[]"
            },
            {
              "internalType": "uint256",
              "name": "finalPrice",
              "type": "uint256"
            },
            {
              "internalType": "uint256",
              "name": "proposedPrice",
              "type": "uint256"
            },
            {
              "internalType": "enum State",
              "name": "state",
              "type": "uint8"
            }
          ],
          "internalType": "struct SessionDetail[]",
          "name": "",
          "type": "tuple[]"
        }
      ],
      "stateMutability": "view",
      "type": "function"
    },
    {
      "inputs": [
        {
          "internalType": "address",
          "name": "_account",
          "type": "address"
        }
      ],
      "name": "incrementParticipantNumberOfSession",
      "outputs": [],
      "stateMutability": "nonpayable",
      "type": "function"
    },
    {
      "inputs": [
        {
          "internalType": "address",
          "name": "",
          "type": "address"
        }
      ],
      "name": "isSession",
      "outputs": [
        {
          "internalType": "bool",
          "name": "",
          "type": "bool"
        }
      ],
      "stateMutability": "view",
      "type": "function"
    },
    {
      "inputs": [
        {
          "internalType": "uint256",
          "name": "",
          "type": "uint256"
        }
      ],
      "name": "participantKeys",
      "outputs": [
        {
          "internalType": "address",
          "name": "",
          "type": "address"
        }
      ],
      "stateMutability": "view",
      "type": "function"
    },
    {
      "inputs": [
        {
          "internalType": "address",
          "name": "",
          "type": "address"
        }
      ],
      "name": "participants",
      "outputs": [
        {
          "internalType": "address",
          "name": "account",
          "type": "address"
        },
        {
          "internalType": "string",
          "name": "fullName",
          "type": "string"
        },
        {
          "internalType": "string",
          "name": "email",
          "type": "string"
        },
        {
          "internalType": "uint256",
          "name": "numberOfJoinedSession",
          "type": "uint256"
        },
        {
          "internalType": "uint256",
          "name": "deviation",
          "type": "uint256"
        }
      ],
      "stateMutability": "view",
      "type": "function"
    },
    {
      "inputs": [
        {
          "internalType": "string",
          "name": "_fullName",
          "type": "string"
        },
        {
          "internalType": "string",
          "name": "_email",
          "type": "string"
        }
      ],
      "name": "register",
      "outputs": [
        {
          "internalType": "bool",
          "name": "",
          "type": "bool"
        }
      ],
      "stateMutability": "nonpayable",
      "type": "function"
    },
    {
      "inputs": [
        {
          "internalType": "uint256",
          "name": "",
          "type": "uint256"
        }
      ],
      "name": "sessions",
      "outputs": [
        {
          "internalType": "contract Session",
          "name": "",
          "type": "address"
        }
      ],
      "stateMutability": "view",
      "type": "function"
    },
    {
      "inputs": [
        {
          "internalType": "string",
          "name": "_fullName",
          "type": "string"
        },
        {
          "internalType": "string",
          "name": "_email",
          "type": "string"
        }
      ],
      "name": "updateParticipantDetail",
      "outputs": [],
      "stateMutability": "nonpayable",
      "type": "function"
    },
    {
      "inputs": [
        {
          "internalType": "address",
          "name": "_account",
          "type": "address"
        },
        {
          "internalType": "uint256",
          "name": "_deviation",
          "type": "uint256"
        }
      ],
      "name": "updateParticipantDeviation",
      "outputs": [],
      "stateMutability": "nonpayable",
      "type": "function"
    },
    {
      "inputs": [
        {
          "internalType": "address",
          "name": "_sessionAddress",
          "type": "address"
        },
        {
          "internalType": "string",
          "name": "_productName",
          "type": "string"
        },
        {
          "internalType": "string",
          "name": "_productDescription",
          "type": "string"
        },
        {
          "internalType": "string[]",
          "name": "_productImages",
          "type": "string[]"
        }
      ],
      "name": "updateSessionDetail",
      "outputs": [],
      "stateMutability": "nonpayable",
      "type": "function"
    }
  ],
  "transactionHash": "0x60b093ce0b55b698ae60065a95cefdc5cd059baa89d14a79ee5e6426d6d11c7a",
  "args": [],
  "numDeployments": 1,
  "solcInputHash": "ac6ec3ad4069a193755b8f94eeb38fff",
  "bytecode": "0x608060405234801561001057600080fd5b5033600460006101000a81548173ffffffffffffffffffffffffffffffffffffffff021916908373ffffffffffffffffffffffffffffffffffffffff16021790555061599e806100616000396000f3fe60806040523480156200001157600080fd5b50600436106200010c5760003560e01c806383c4b7a311620000a5578063b52c4185116200006f578063b52c418514620002d5578063b9af3173146200030b578063dc15f9c2146200032b578063f851a4401462000361576200010c565b806383c4b7a31462000229578063888d602f146200025f578063937f4a26146200027f57806398bb0f3b146200029f576200010c565b8063492fb96011620000e7578063492fb96014620001a35780635aa68ac014620001c35780635b01fb3914620001e557806361503e451462000207576200010c565b806309e69ede146200011157806314b87862146200014b5780633ffbd47f146200016d575b600080fd5b6200012f600480360381019062000129919062001bbb565b62000383565b60405162000142959493929190620024fe565b60405180910390f35b62000155620004f9565b60405162000164919062002681565b60405180910390f35b6200018b600480360381019062000185919062001d03565b620007c5565b6040516200019a9190620025b1565b60405180910390f35b620001c16004803603810190620001bb919062001bbb565b620009ef565b005b620001cd62000ae3565b604051620001dc919062002569565b60405180910390f35b620001ef62000e21565b604051620001fe91906200243e565b60405180910390f35b6200021162000efd565b6040516200022091906200258d565b60405180910390f35b62000247600480360381019062000241919062001ea8565b62001081565b604051620002569190620025ce565b60405180910390f35b6200027d600480360381019062000277919062001bed565b620010c1565b005b6200029d600480360381019062000297919062001cbc565b6200119b565b005b620002bd6004803603810190620002b7919062001ea8565b6200127c565b604051620002cc91906200243e565b60405180910390f35b620002f36004803603810190620002ed919062001d88565b620012bc565b604051620003029190620025ce565b60405180910390f35b62000329600480360381019062000323919062001d03565b6200144e565b005b62000349600480360381019062000343919062001bbb565b620015d9565b604051620003589190620025b1565b60405180910390f35b6200036b620015f9565b6040516200037a91906200243e565b60405180910390f35b60016020528060005260406000206000915090508060000160009054906101000a900473ffffffffffffffffffffffffffffffffffffffff1690806001018054620003ce9062002981565b80601f0160208091040260200160405190810160405280929190818152602001828054620003fc9062002981565b80156200044d5780601f1062000421576101008083540402835291602001916200044d565b820191906000526020600020905b8154815290600101906020018083116200042f57829003601f168201915b505050505090806002018054620004649062002981565b80601f0160208091040260200160405190810160405280929190818152602001828054620004929062002981565b8015620004e35780601f10620004b757610100808354040283529160200191620004e3565b820191906000526020600020905b815481529060010190602001808311620004c557829003601f168201915b5050505050908060030154908060040154905085565b620005036200161f565b600073ffffffffffffffffffffffffffffffffffffffff16600160003373ffffffffffffffffffffffffffffffffffffffff1673ffffffffffffffffffffffffffffffffffffffff16815260200190815260200160002060000160009054906101000a900473ffffffffffffffffffffffffffffffffffffffff1673ffffffffffffffffffffffffffffffffffffffff161415620005d8576040517f08c379a0000000000000000000000000000000000000000000000000000000008152600401620005cf906200263d565b60405180910390fd5b600160003373ffffffffffffffffffffffffffffffffffffffff1673ffffffffffffffffffffffffffffffffffffffff1681526020019081526020016000206040518060a00160405290816000820160009054906101000a900473ffffffffffffffffffffffffffffffffffffffff1673ffffffffffffffffffffffffffffffffffffffff1673ffffffffffffffffffffffffffffffffffffffff1681526020016001820180546200068a9062002981565b80601f0160208091040260200160405190810160405280929190818152602001828054620006b89062002981565b8015620007095780601f10620006dd5761010080835404028352916020019162000709565b820191906000526020600020905b815481529060010190602001808311620006eb57829003601f168201915b50505050508152602001600282018054620007249062002981565b80601f0160208091040260200160405190810160405280929190818152602001828054620007529062002981565b8015620007a35780601f106200077757610100808354040283529160200191620007a3565b820191906000526020600020905b8154815290600101906020018083116200078557829003601f168201915b5050505050815260200160038201548152602001600482015481525050905090565b60008073ffffffffffffffffffffffffffffffffffffffff16600160003373ffffffffffffffffffffffffffffffffffffffff1673ffffffffffffffffffffffffffffffffffffffff16815260200190815260200160002060000160009054906101000a900473ffffffffffffffffffffffffffffffffffffffff1673ffffffffffffffffffffffffffffffffffffffff16146200086257600080fd5b60006040518060a001604052803373ffffffffffffffffffffffffffffffffffffffff168152602001858152602001848152602001600081526020016000815250905080600160003373ffffffffffffffffffffffffffffffffffffffff1673ffffffffffffffffffffffffffffffffffffffff16815260200190815260200160002060008201518160000160006101000a81548173ffffffffffffffffffffffffffffffffffffffff021916908373ffffffffffffffffffffffffffffffffffffffff16021790555060208201518160010190805190602001906200094a92919062001664565b5060408201518160020190805190602001906200096992919062001664565b5060608201518160030155608082015181600401559050506000339080600181540180825580915050600190039060005260206000200160009091909190916101000a81548173ffffffffffffffffffffffffffffffffffffffff021916908373ffffffffffffffffffffffffffffffffffffffff160217905550600191505092915050565b60011515600260003373ffffffffffffffffffffffffffffffffffffffff1673ffffffffffffffffffffffffffffffffffffffff16815260200190815260200160002060009054906101000a900460ff1615151462000a85576040517f08c379a000000000000000000000000000000000000000000000000000000000815260040162000a7c906200265f565b60405180910390fd5b60018060008373ffffffffffffffffffffffffffffffffffffffff1673ffffffffffffffffffffffffffffffffffffffff168152602001908152602001600020600301600082825462000ad991906200281c565b9250508190555050565b6060600460009054906101000a900473ffffffffffffffffffffffffffffffffffffffff1673ffffffffffffffffffffffffffffffffffffffff163373ffffffffffffffffffffffffffffffffffffffff161462000b4057600080fd5b6000808054905067ffffffffffffffff81111562000b635762000b6262002af7565b5b60405190808252806020026020018201604052801562000ba057816020015b62000b8c6200161f565b81526020019060019003908162000b825790505b50905060005b60008054905081101562000e195760006001600080848154811062000bd05762000bcf62002ac8565b5b9060005260206000200160009054906101000a900473ffffffffffffffffffffffffffffffffffffffff1673ffffffffffffffffffffffffffffffffffffffff1673ffffffffffffffffffffffffffffffffffffffff1681526020019081526020016000206040518060a00160405290816000820160009054906101000a900473ffffffffffffffffffffffffffffffffffffffff1673ffffffffffffffffffffffffffffffffffffffff1673ffffffffffffffffffffffffffffffffffffffff16815260200160018201805462000ca89062002981565b80601f016020809104026020016040519081016040528092919081815260200182805462000cd69062002981565b801562000d275780601f1062000cfb5761010080835404028352916020019162000d27565b820191906000526020600020905b81548152906001019060200180831162000d0957829003601f168201915b5050505050815260200160028201805462000d429062002981565b80601f016020809104026020016040519081016040528092919081815260200182805462000d709062002981565b801562000dc15780601f1062000d955761010080835404028352916020019162000dc1565b820191906000526020600020905b81548152906001019060200180831162000da357829003601f168201915b505050505081526020016003820154815260200160048201548152505090508083838151811062000df75762000df662002ac8565b5b602002602001018190525050808062000e1090620029ed565b91505062000ba6565b508091505090565b60008073ffffffffffffffffffffffffffffffffffffffff16600160003373ffffffffffffffffffffffffffffffffffffffff1673ffffffffffffffffffffffffffffffffffffffff16815260200190815260200160002060000160009054906101000a900473ffffffffffffffffffffffffffffffffffffffff1673ffffffffffffffffffffffffffffffffffffffff16141562000ef7576040517f08c379a000000000000000000000000000000000000000000000000000000000815260040162000eee906200263d565b60405180910390fd5b33905090565b6060600060038054905067ffffffffffffffff81111562000f235762000f2262002af7565b5b60405190808252806020026020018201604052801562000f6057816020015b62000f4c620016f5565b81526020019060019003908162000f425790505b50905060005b600380549050811015620010795760006003828154811062000f8d5762000f8c62002ac8565b5b9060005260206000200160009054906101000a900473ffffffffffffffffffffffffffffffffffffffff1673ffffffffffffffffffffffffffffffffffffffff1663f8cb00bf6040518163ffffffff1660e01b815260040160006040518083038186803b15801562000ffe57600080fd5b505afa15801562001013573d6000803e3d6000fd5b505050506040513d6000823e3d601f19601f820116820180604052508101906200103e919062001e57565b90508083838151811062001057576200105662002ac8565b5b60200260200101819052505080806200107090620029ed565b91505062000f66565b508091505090565b600381815481106200109257600080fd5b906000526020600020016000915054906101000a900473ffffffffffffffffffffffffffffffffffffffff1681565b600460009054906101000a900473ffffffffffffffffffffffffffffffffffffffff1673ffffffffffffffffffffffffffffffffffffffff163373ffffffffffffffffffffffffffffffffffffffff16146200111c57600080fd5b60008490508073ffffffffffffffffffffffffffffffffffffffff16639b4976c48585856040518463ffffffff1660e01b81526004016200116093929190620025eb565b600060405180830381600087803b1580156200117b57600080fd5b505af115801562001190573d6000803e3d6000fd5b505050505050505050565b60011515600260003373ffffffffffffffffffffffffffffffffffffffff1673ffffffffffffffffffffffffffffffffffffffff16815260200190815260200160002060009054906101000a900460ff1615151462001231576040517f08c379a000000000000000000000000000000000000000000000000000000000815260040162001228906200265f565b60405180910390fd5b80600160008473ffffffffffffffffffffffffffffffffffffffff1673ffffffffffffffffffffffffffffffffffffffff168152602001908152602001600020600401819055505050565b600081815481106200128d57600080fd5b906000526020600020016000915054906101000a900473ffffffffffffffffffffffffffffffffffffffff1681565b6000600460009054906101000a900473ffffffffffffffffffffffffffffffffffffffff1673ffffffffffffffffffffffffffffffffffffffff163373ffffffffffffffffffffffffffffffffffffffff16146200131957600080fd5b600030600460009054906101000a900473ffffffffffffffffffffffffffffffffffffffff168787876000808960405162001354906200175d565b620013679897969594939291906200245b565b604051809103906000f08015801562001384573d6000803e3d6000fd5b5090506003819080600181540180825580915050600190039060005260206000200160009091909190916101000a81548173ffffffffffffffffffffffffffffffffffffffff021916908373ffffffffffffffffffffffffffffffffffffffff1602179055506001600260008373ffffffffffffffffffffffffffffffffffffffff1673ffffffffffffffffffffffffffffffffffffffff16815260200190815260200160002060006101000a81548160ff02191690831515021790555080915050949350505050565b600073ffffffffffffffffffffffffffffffffffffffff16600160003373ffffffffffffffffffffffffffffffffffffffff1673ffffffffffffffffffffffffffffffffffffffff16815260200190815260200160002060000160009054906101000a900473ffffffffffffffffffffffffffffffffffffffff1673ffffffffffffffffffffffffffffffffffffffff16141562001523576040517f08c379a00000000000000000000000000000000000000000000000000000000081526004016200151a906200263d565b60405180910390fd5b81600160003373ffffffffffffffffffffffffffffffffffffffff1673ffffffffffffffffffffffffffffffffffffffff16815260200190815260200160002060010190805190602001906200157b92919062001664565b5080600160003373ffffffffffffffffffffffffffffffffffffffff1673ffffffffffffffffffffffffffffffffffffffff1681526020019081526020016000206002019080519060200190620015d492919062001664565b505050565b60026020528060005260406000206000915054906101000a900460ff1681565b600460009054906101000a900473ffffffffffffffffffffffffffffffffffffffff1681565b6040518060a00160405280600073ffffffffffffffffffffffffffffffffffffffff168152602001606081526020016060815260200160008152602001600081525090565b828054620016729062002981565b90600052602060002090601f016020900481019282620016965760008555620016e2565b82601f10620016b157805160ff1916838001178555620016e2565b82800160010185558215620016e2579182015b82811115620016e1578251825591602001919060010190620016c4565b5b509050620016f191906200176b565b5090565b6040518060e00160405280600073ffffffffffffffffffffffffffffffffffffffff16815260200160608152602001606081526020016060815260200160008152602001600081526020016000600181111562001757576200175662002a6a565b5b81525090565b612d608062002c0983390190565b5b80821115620017865760008160009055506001016200176c565b5090565b6000620017a16200179b84620026ce565b620026a5565b90508083825260208201905082856020860282011115620017c757620017c662002b35565b5b60005b858110156200181c57813567ffffffffffffffff811115620017f157620017f062002b26565b5b80860162001800898262001a03565b85526020850194506020840193505050600181019050620017ca565b5050509392505050565b60006200183d6200183784620026ce565b620026a5565b9050808382526020820190508285602086028201111562001863576200186262002b35565b5b60005b85811015620018b857815167ffffffffffffffff8111156200188d576200188c62002b26565b5b8086016200189c898262001a36565b8552602085019450602084019350505060018101905062001866565b5050509392505050565b6000620018d9620018d384620026fd565b620026a5565b905082815260208101848484011115620018f857620018f762002b3a565b5b620019058482856200293c565b509392505050565b6000620019246200191e84620026fd565b620026a5565b90508281526020810184848401111562001943576200194262002b3a565b5b620019508482856200294b565b509392505050565b600081359050620019698162002bc3565b92915050565b600081519050620019808162002bc3565b92915050565b600082601f8301126200199e576200199d62002b26565b5b8135620019b08482602086016200178a565b91505092915050565b600082601f830112620019d157620019d062002b26565b5b8151620019e384826020860162001826565b91505092915050565b600081519050620019fd8162002bdd565b92915050565b600082601f83011262001a1b5762001a1a62002b26565b5b813562001a2d848260208601620018c2565b91505092915050565b600082601f83011262001a4e5762001a4d62002b26565b5b815162001a608482602086016200190d565b91505092915050565b600060e0828403121562001a825762001a8162002b2b565b5b62001a8e60e0620026a5565b9050600062001aa0848285016200196f565b600083015250602082015167ffffffffffffffff81111562001ac75762001ac662002b30565b5b62001ad58482850162001a36565b602083015250604082015167ffffffffffffffff81111562001afc5762001afb62002b30565b5b62001b0a8482850162001a36565b604083015250606082015167ffffffffffffffff81111562001b315762001b3062002b30565b5b62001b3f84828501620019b9565b606083015250608062001b558482850162001ba4565b60808301525060a062001b6b8482850162001ba4565b60a08301525060c062001b8184828501620019ec565b60c08301525092915050565b60008135905062001b9e8162002bee565b92915050565b60008151905062001bb58162002bee565b92915050565b60006020828403121562001bd45762001bd362002b44565b5b600062001be48482850162001958565b91505092915050565b6000806000806080858703121562001c0a5762001c0962002b44565b5b600062001c1a8782880162001958565b945050602085013567ffffffffffffffff81111562001c3e5762001c3d62002b3f565b5b62001c4c8782880162001a03565b935050604085013567ffffffffffffffff81111562001c705762001c6f62002b3f565b5b62001c7e8782880162001a03565b925050606085013567ffffffffffffffff81111562001ca25762001ca162002b3f565b5b62001cb08782880162001986565b91505092959194509250565b6000806040838503121562001cd65762001cd562002b44565b5b600062001ce68582860162001958565b925050602062001cf98582860162001b8d565b9150509250929050565b6000806040838503121562001d1d5762001d1c62002b44565b5b600083013567ffffffffffffffff81111562001d3e5762001d3d62002b3f565b5b62001d4c8582860162001a03565b925050602083013567ffffffffffffffff81111562001d705762001d6f62002b3f565b5b62001d7e8582860162001a03565b9150509250929050565b6000806000806080858703121562001da55762001da462002b44565b5b600085013567ffffffffffffffff81111562001dc65762001dc562002b3f565b5b62001dd48782880162001a03565b945050602085013567ffffffffffffffff81111562001df85762001df762002b3f565b5b62001e068782880162001a03565b935050604085013567ffffffffffffffff81111562001e2a5762001e2962002b3f565b5b62001e388782880162001986565b925050606062001e4b8782880162001b8d565b91505092959194509250565b60006020828403121562001e705762001e6f62002b44565b5b600082015167ffffffffffffffff81111562001e915762001e9062002b3f565b5b62001e9f8482850162001a69565b91505092915050565b60006020828403121562001ec15762001ec062002b44565b5b600062001ed18482850162001b8d565b91505092915050565b600062001ee8838362002186565b905092915050565b600062001efe838362002256565b905092915050565b600062001f14838362002364565b905092915050565b62001f278162002879565b82525050565b62001f388162002879565b82525050565b600062001f4b8262002763565b62001f578185620027b6565b93508360208202850162001f6b8562002733565b8060005b8581101562001fad578484038952815162001f8b858262001eda565b945062001f98836200278f565b925060208a0199505060018101905062001f6f565b50829750879550505050505092915050565b600062001fcc8262002763565b62001fd88185620027c7565b93508360208202850162001fec8562002733565b8060005b858110156200202e57848403895281516200200c858262001eda565b945062002019836200278f565b925060208a0199505060018101905062001ff0565b50829750879550505050505092915050565b60006200204d826200276e565b620020598185620027d8565b9350836020820285016200206d8562002743565b8060005b85811015620020af57848403895281516200208d858262001ef0565b94506200209a836200279c565b925060208a0199505060018101905062002071565b50829750879550505050505092915050565b6000620020ce8262002779565b620020da8185620027e9565b935083602082028501620020ee8562002753565b8060005b858110156200213057848403895281516200210e858262001f06565b94506200211b83620027a9565b925060208a01995050600181019050620020f2565b50829750879550505050505092915050565b6200214d816200288d565b82525050565b6200215e81620028d8565b82525050565b6200216f81620028ec565b82525050565b620021808162002900565b82525050565b6000620021938262002784565b6200219f8185620027fa565b9350620021b18185602086016200294b565b620021bc8162002b49565b840191505092915050565b6000620021d48262002784565b620021e081856200280b565b9350620021f28185602086016200294b565b620021fd8162002b49565b840191505092915050565b600062002217600e836200280b565b9150620022248262002b5a565b602082019050919050565b60006200223e600b836200280b565b91506200224b8262002b83565b602082019050919050565b600060a08301600083015162002270600086018262001f1c565b50602083015184820360208601526200228a828262002186565b91505060408301518482036040860152620022a6828262002186565b9150506060830151620022bd60608601826200241c565b506080830151620022d260808601826200241c565b508091505092915050565b600060a083016000830151620022f7600086018262001f1c565b506020830151848203602086015262002311828262002186565b915050604083015184820360408601526200232d828262002186565b91505060608301516200234460608601826200241c565b5060808301516200235960808601826200241c565b508091505092915050565b600060e0830160008301516200237e600086018262001f1c565b506020830151848203602086015262002398828262002186565b91505060408301518482036040860152620023b4828262002186565b91505060608301518482036060860152620023d0828262001f3e565b9150506080830151620023e760808601826200241c565b5060a0830151620023fc60a08601826200241c565b5060c08301516200241160c086018262002164565b508091505092915050565b6200242781620028ce565b82525050565b6200243881620028ce565b82525050565b600060208201905062002455600083018462001f2d565b92915050565b60006101008201905062002473600083018b62001f2d565b62002482602083018a62001f2d565b8181036040830152620024968189620021c7565b90508181036060830152620024ac8188620021c7565b90508181036080830152620024c2818762001fbf565b9050620024d360a083018662002175565b620024e260c083018562002175565b620024f160e08301846200242d565b9998505050505050505050565b600060a08201905062002515600083018862001f2d565b8181036020830152620025298187620021c7565b905081810360408301526200253f8186620021c7565b90506200255060608301856200242d565b6200255f60808301846200242d565b9695505050505050565b6000602082019050818103600083015262002585818462002040565b905092915050565b60006020820190508181036000830152620025a98184620020c1565b905092915050565b6000602082019050620025c8600083018462002142565b92915050565b6000602082019050620025e5600083018462002153565b92915050565b60006060820190508181036000830152620026078186620021c7565b905081810360208301526200261d8185620021c7565b9050818103604083015262002633818462001fbf565b9050949350505050565b60006020820190508181036000830152620026588162002208565b9050919050565b600060208201905081810360008301526200267a816200222f565b9050919050565b600060208201905081810360008301526200269d8184620022dd565b905092915050565b6000620026b1620026c4565b9050620026bf8282620029b7565b919050565b6000604051905090565b600067ffffffffffffffff821115620026ec57620026eb62002af7565b5b602082029050602081019050919050565b600067ffffffffffffffff8211156200271b576200271a62002af7565b5b620027268262002b49565b9050602081019050919050565b6000819050602082019050919050565b6000819050602082019050919050565b6000819050602082019050919050565b600081519050919050565b600081519050919050565b600081519050919050565b600081519050919050565b6000602082019050919050565b6000602082019050919050565b6000602082019050919050565b600082825260208201905092915050565b600082825260208201905092915050565b600082825260208201905092915050565b600082825260208201905092915050565b600082825260208201905092915050565b600082825260208201905092915050565b60006200282982620028ce565b91506200283683620028ce565b9250827fffffffffffffffffffffffffffffffffffffffffffffffffffffffffffffffff038211156200286e576200286d62002a3b565b5b828201905092915050565b60006200288682620028ae565b9050919050565b60008115159050919050565b6000819050620028a98262002bac565b919050565b600073ffffffffffffffffffffffffffffffffffffffff82169050919050565b6000819050919050565b6000620028e58262002914565b9050919050565b6000620028f98262002899565b9050919050565b60006200290d82620028ce565b9050919050565b6000620029218262002928565b9050919050565b60006200293582620028ae565b9050919050565b82818337600083830152505050565b60005b838110156200296b5780820151818401526020810190506200294e565b838111156200297b576000848401525b50505050565b600060028204905060018216806200299a57607f821691505b60208210811415620029b157620029b062002a99565b5b50919050565b620029c28262002b49565b810181811067ffffffffffffffff82111715620029e457620029e362002af7565b5b80604052505050565b6000620029fa82620028ce565b91507fffffffffffffffffffffffffffffffffffffffffffffffffffffffffffffffff82141562002a305762002a2f62002a3b565b5b600182019050919050565b7f4e487b7100000000000000000000000000000000000000000000000000000000600052601160045260246000fd5b7f4e487b7100000000000000000000000000000000000000000000000000000000600052602160045260246000fd5b7f4e487b7100000000000000000000000000000000000000000000000000000000600052602260045260246000fd5b7f4e487b7100000000000000000000000000000000000000000000000000000000600052603260045260246000fd5b7f4e487b7100000000000000000000000000000000000000000000000000000000600052604160045260246000fd5b600080fd5b600080fd5b600080fd5b600080fd5b600080fd5b600080fd5b600080fd5b6000601f19601f8301169050919050565b7f4e6f742072656769737465726564000000000000000000000000000000000000600082015250565b7f4e6f742073657373696f6e000000000000000000000000000000000000000000600082015250565b6002811062002bc05762002bbf62002a6a565b5b50565b62002bce8162002879565b811462002bda57600080fd5b50565b6002811062002beb57600080fd5b50565b62002bf981620028ce565b811462002c0557600080fd5b5056fe60a06040523480156200001157600080fd5b5060405162002d6038038062002d6083398181016040528101906200003791906200045d565b87600860006101000a81548173ffffffffffffffffffffffffffffffffffffffff021916908373ffffffffffffffffffffffffffffffffffffffff16021790555086600760006101000a81548173ffffffffffffffffffffffffffffffffffffffff021916908373ffffffffffffffffffffffffffffffffffffffff160217905550826005819055508560009080519060200190620000d89291906200015d565b508460019080519060200190620000f19291906200015d565b5083600290805190602001906200010a929190620001ee565b50816006819055506000600860146101000a81548160ff021916908360018111156200013b576200013a620006f1565b5b02179055504260808181525050806009819055505050505050505050620007dc565b8280546200016b9062000685565b90600052602060002090601f0160209004810192826200018f5760008555620001db565b82601f10620001aa57805160ff1916838001178555620001db565b82800160010185558215620001db579182015b82811115620001da578251825591602001919060010190620001bd565b5b509050620001ea919062000255565b5090565b82805482825590600052602060002090810192821562000242579160200282015b8281111562000241578251829080519060200190620002309291906200015d565b50916020019190600101906200020f565b5b50905062000251919062000274565b5090565b5b808211156200027057600081600090555060010162000256565b5090565b5b808211156200029857600081816200028e91906200029c565b5060010162000275565b5090565b508054620002aa9062000685565b6000825580601f10620002be5750620002df565b601f016020900490600052602060002090810190620002de919062000255565b5b50565b6000620002f9620002f384620005ac565b62000583565b905080838252602082019050828560208602820111156200031f576200031e62000783565b5b60005b858110156200037457815167ffffffffffffffff8111156200034957620003486200077e565b5b80860162000358898262000413565b8552602085019450602084019350505060018101905062000322565b5050509392505050565b6000620003956200038f84620005db565b62000583565b905082815260208101848484011115620003b457620003b362000788565b5b620003c18482856200064f565b509392505050565b600081519050620003da81620007a8565b92915050565b600082601f830112620003f857620003f76200077e565b5b81516200040a848260208601620002e2565b91505092915050565b600082601f8301126200042b576200042a6200077e565b5b81516200043d8482602086016200037e565b91505092915050565b6000815190506200045781620007c2565b92915050565b600080600080600080600080610100898b03121562000481576200048062000792565b5b6000620004918b828c01620003c9565b9850506020620004a48b828c01620003c9565b975050604089015167ffffffffffffffff811115620004c857620004c76200078d565b5b620004d68b828c0162000413565b965050606089015167ffffffffffffffff811115620004fa57620004f96200078d565b5b620005088b828c0162000413565b955050608089015167ffffffffffffffff8111156200052c576200052b6200078d565b5b6200053a8b828c01620003e0565b94505060a06200054d8b828c0162000446565b93505060c0620005608b828c0162000446565b92505060e0620005738b828c0162000446565b9150509295985092959890939650565b60006200058f620005a2565b90506200059d8282620006bb565b919050565b6000604051905090565b600067ffffffffffffffff821115620005ca57620005c96200074f565b5b602082029050602081019050919050565b600067ffffffffffffffff821115620005f957620005f86200074f565b5b620006048262000797565b9050602081019050919050565b60006200061e8262000625565b9050919050565b600073ffffffffffffffffffffffffffffffffffffffff82169050919050565b6000819050919050565b60005b838110156200066f57808201518184015260208101905062000652565b838111156200067f576000848401525b50505050565b600060028204905060018216806200069e57607f821691505b60208210811415620006b557620006b462000720565b5b50919050565b620006c68262000797565b810181811067ffffffffffffffff82111715620006e857620006e76200074f565b5b80604052505050565b7f4e487b7100000000000000000000000000000000000000000000000000000000600052602160045260246000fd5b7f4e487b7100000000000000000000000000000000000000000000000000000000600052602260045260246000fd5b7f4e487b7100000000000000000000000000000000000000000000000000000000600052604160045260246000fd5b600080fd5b600080fd5b600080fd5b600080fd5b600080fd5b6000601f19601f8301169050919050565b620007b38162000611565b8114620007bf57600080fd5b50565b620007cd8162000645565b8114620007d957600080fd5b50565b608051612561620007ff60003960008181610cc30152610e0601526125616000f3fe608060405234801561001057600080fd5b506004361061010b5760003560e01c8063a6b513ee116100a2578063d270e7ab11610071578063d270e7ab14610296578063e3635bfd146102b4578063f212597e146102d2578063f851a440146102f0578063f8cb00bf1461030e5761010b565b8063a6b513ee1461020c578063c19d93fb1461022a578063c828371e14610248578063cd9b7ecb146102665761010b565b80638a30f8cc116100de5780638a30f8cc146101985780639b4976c4146101b65780639ce05df7146101d2578063a618b74e146101f05761010b565b80632c002fd4146101105780632d5be77f1461012e578063705c1a111461014a5780637f7650eb1461017a575b600080fd5b61011861032c565b6040516101259190611e9a565b60405180910390f35b61014860048036038101906101439190611989565b610336565b005b610164600480360381019061015f9190611989565b6107d2565b6040516101719190611cdc565b60405180910390f35b610182610811565b60405161018f9190611d56565b60405180910390f35b6101a061089f565b6040516101ad9190611d56565b60405180910390f35b6101d060048036038101906101cb91906118e2565b61092d565b005b6101da610a7f565b6040516101e79190611e9a565b60405180910390f35b61020a60048036038101906102059190611989565b610a89565b005b610214610de9565b6040516102219190611e9a565b60405180910390f35b610232610def565b60405161023f9190611d3b565b60405180910390f35b610250610e02565b60405161025d9190611e9a565b60405180910390f35b610280600480360381019061027b9190611802565b610e2a565b60405161028d9190611e9a565b60405180910390f35b61029e610e42565b6040516102ab9190611d20565b60405180910390f35b6102bc610e68565b6040516102c99190611e9a565b60405180910390f35b6102da610e6e565b6040516102e79190611e9a565b60405180910390f35b6102f861110c565b6040516103059190611cdc565b60405180910390f35b610316611132565b6040516103239190611e78565b60405180910390f35b6000600954905090565b600760009054906101000a900473ffffffffffffffffffffffffffffffffffffffff1673ffffffffffffffffffffffffffffffffffffffff163373ffffffffffffffffffffffffffffffffffffffff16146103c6576040517f08c379a00000000000000000000000000000000000000000000000000000000081526004016103bd90611db8565b60405180910390fd5b60008060018111156103db576103da612295565b5b600860149054906101000a900460ff1660018111156103fd576103fc612295565b5b1461043d576040517f08c379a000000000000000000000000000000000000000000000000000000000815260040161043490611e38565b60405180910390fd5b600082101561044b57600080fd5b6001600860146101000a81548160ff0219169083600181111561047157610470612295565b5b02179055508160068190555060005b6003805490508110156107cd57600080600860009054906101000a900473ffffffffffffffffffffffffffffffffffffffff1673ffffffffffffffffffffffffffffffffffffffff166309e69ede600385815481106104e2576104e16122f3565b5b9060005260206000200160009054906101000a900473ffffffffffffffffffffffffffffffffffffffff166040518263ffffffff1660e01b81526004016105299190611cdc565b60006040518083038186803b15801561054157600080fd5b505afa158015610555573d6000803e3d6000fd5b505050506040513d6000823e3d601f19601f8201168201806040525081019061057e919061182f565b94509450505050600061060d60046000600387815481106105a2576105a16122f3565b5b9060005260206000200160009054906101000a900473ffffffffffffffffffffffffffffffffffffffff1673ffffffffffffffffffffffffffffffffffffffff1673ffffffffffffffffffffffffffffffffffffffff16815260200190815260200160002054611398565b9050600061061c83858461140d565b9050600860009054906101000a900473ffffffffffffffffffffffffffffffffffffffff1673ffffffffffffffffffffffffffffffffffffffff1663937f4a26600387815481106106705761066f6122f3565b5b9060005260206000200160009054906101000a900473ffffffffffffffffffffffffffffffffffffffff16836040518363ffffffff1660e01b81526004016106b9929190611cf7565b600060405180830381600087803b1580156106d357600080fd5b505af11580156106e7573d6000803e3d6000fd5b50505050600860009054906101000a900473ffffffffffffffffffffffffffffffffffffffff1673ffffffffffffffffffffffffffffffffffffffff1663492fb9606003878154811061073d5761073c6122f3565b5b9060005260206000200160009054906101000a900473ffffffffffffffffffffffffffffffffffffffff166040518263ffffffff1660e01b81526004016107849190611cdc565b600060405180830381600087803b15801561079e57600080fd5b505af11580156107b2573d6000803e3d6000fd5b505050505050505080806107c5906121ee565b915050610480565b505050565b600381815481106107e257600080fd5b906000526020600020016000915054906101000a900473ffffffffffffffffffffffffffffffffffffffff1681565b6000805461081e9061218b565b80601f016020809104026020016040519081016040528092919081815260200182805461084a9061218b565b80156108975780601f1061086c57610100808354040283529160200191610897565b820191906000526020600020905b81548152906001019060200180831161087a57829003601f168201915b505050505081565b600180546108ac9061218b565b80601f01602080910402602001604051908101604052809291908181526020018280546108d89061218b565b80156109255780601f106108fa57610100808354040283529160200191610925565b820191906000526020600020905b81548152906001019060200180831161090857829003601f168201915b505050505081565b600860009054906101000a900473ffffffffffffffffffffffffffffffffffffffff1673ffffffffffffffffffffffffffffffffffffffff163373ffffffffffffffffffffffffffffffffffffffff16146109bd576040517f08c379a00000000000000000000000000000000000000000000000000000000081526004016109b490611e18565b60405180910390fd5b60008060018111156109d2576109d1612295565b5b600860149054906101000a900460ff1660018111156109f4576109f3612295565b5b14610a34576040517f08c379a0000000000000000000000000000000000000000000000000000000008152600401610a2b90611e38565b60405180910390fd5b8360009080519060200190610a4a929190611446565b508260019080519060200190610a61929190611446565b508160029080519060200190610a789291906114cc565b5050505050565b6000600654905090565b6000600860009054906101000a900473ffffffffffffffffffffffffffffffffffffffff1673ffffffffffffffffffffffffffffffffffffffff166309e69ede336040518263ffffffff1660e01b8152600401610ae69190611cdc565b60006040518083038186803b158015610afe57600080fd5b505afa158015610b12573d6000803e3d6000fd5b505050506040513d6000823e3d601f19601f82011682018060405250810190610b3b919061182f565b505050509050600073ffffffffffffffffffffffffffffffffffffffff168173ffffffffffffffffffffffffffffffffffffffff161415610bb1576040517f08c379a0000000000000000000000000000000000000000000000000000000008152600401610ba890611d98565b60405180910390fd5b6000806001811115610bc657610bc5612295565b5b600860149054906101000a900460ff166001811115610be857610be7612295565b5b14610c28576040517f08c379a0000000000000000000000000000000000000000000000000000000008152600401610c1f90611e38565b60405180910390fd5b60008311610c6b576040517f08c379a0000000000000000000000000000000000000000000000000000000008152600401610c6290611df8565b60405180910390fd5b600a60038054905010610cb3576040517f08c379a0000000000000000000000000000000000000000000000000000000008152600401610caa90611d78565b60405180910390fd5b60006009541115610d2f576009547f0000000000000000000000000000000000000000000000000000000000000000610cec9190611f9d565b421115610d2e576040517f08c379a0000000000000000000000000000000000000000000000000000000008152600401610d2590611e58565b60405180910390fd5b5b82600460003373ffffffffffffffffffffffffffffffffffffffff1673ffffffffffffffffffffffffffffffffffffffff168152602001908152602001600020819055506003339080600181540180825580915050600190039060005260206000200160009091909190916101000a81548173ffffffffffffffffffffffffffffffffffffffff021916908373ffffffffffffffffffffffffffffffffffffffff160217905550610dde610e6e565b600581905550505050565b60065481565b600860149054906101000a900460ff1681565b60007f0000000000000000000000000000000000000000000000000000000000000000905090565b60046020528060005260406000206000915090505481565b600860009054906101000a900473ffffffffffffffffffffffffffffffffffffffff1681565b60055481565b60008060038054905011610eb7576040517f08c379a0000000000000000000000000000000000000000000000000000000008152600401610eae90611dd8565b60405180910390fd5b600080600080600090505b6003805490508110156110af576000600860009054906101000a900473ffffffffffffffffffffffffffffffffffffffff1673ffffffffffffffffffffffffffffffffffffffff166309e69ede60038481548110610f2357610f226122f3565b5b9060005260206000200160009054906101000a900473ffffffffffffffffffffffffffffffffffffffff166040518263ffffffff1660e01b8152600401610f6a9190611cdc565b60006040518083038186803b158015610f8257600080fd5b505afa158015610f96573d6000803e3d6000fd5b505050506040513d6000823e3d601f19601f82011682018060405250810190610fbf919061182f565b94505050505068056bc75e2d63100000811115610fe35768056bc75e2d6310000090505b8068056bc75e2d63100000610ff8919061207e565b60046000600385815481106110105761100f6122f3565b5b9060005260206000200160009054906101000a900473ffffffffffffffffffffffffffffffffffffffff1673ffffffffffffffffffffffffffffffffffffffff1673ffffffffffffffffffffffffffffffffffffffff168152602001908152602001600020546110809190612024565b8561108b9190611f9d565b945080836110999190611f9d565b92505080806110a7906121ee565b915050610ec2565b5080670de0b6b3a764000060038054905060646110cc9190612024565b6110d69190612024565b6110e0919061207e565b915060008214156110f75760009350505050611109565b81836111039190611ff3565b93505050505b90565b600760009054906101000a900473ffffffffffffffffffffffffffffffffffffffff1681565b61113a61152c565b60006040518060e001604052803073ffffffffffffffffffffffffffffffffffffffff168152602001600080546111709061218b565b80601f016020809104026020016040519081016040528092919081815260200182805461119c9061218b565b80156111e95780601f106111be576101008083540402835291602001916111e9565b820191906000526020600020905b8154815290600101906020018083116111cc57829003601f168201915b50505050508152602001600180546112009061218b565b80601f016020809104026020016040519081016040528092919081815260200182805461122c9061218b565b80156112795780601f1061124e57610100808354040283529160200191611279565b820191906000526020600020905b81548152906001019060200180831161125c57829003601f168201915b505050505081526020016002805480602002602001604051908101604052809291908181526020016000905b828210156113515783829060005260206000200180546112c49061218b565b80601f01602080910402602001604051908101604052809291908181526020018280546112f09061218b565b801561133d5780601f106113125761010080835404028352916020019161133d565b820191906000526020600020905b81548152906001019060200180831161132057829003601f168201915b5050505050815260200190600101906112a5565b50505050815260200160065481526020016005548152602001600860149054906101000a900460ff16600181111561138c5761138b612295565b5b81525090508091505090565b600080600654116113a857600080fd5b60008260065410156113c757600654836113c2919061207e565b6113d6565b826006546113d5919061207e565b5b9050600654670de0b6b3a76400006064836113f19190612024565b6113fb9190612024565b6114059190611ff3565b915050919050565b600060018361141c9190611f9d565b8284866114299190612024565b6114339190611f9d565b61143d9190611ff3565b90509392505050565b8280546114529061218b565b90600052602060002090601f01602090048101928261147457600085556114bb565b82601f1061148d57805160ff19168380011785556114bb565b828001600101855582156114bb579182015b828111156114ba57825182559160200191906001019061149f565b5b5090506114c89190611591565b5090565b82805482825590600052602060002090810192821561151b579160200282015b8281111561151a57825182908051906020019061150a929190611446565b50916020019190600101906114ec565b5b50905061152891906115ae565b5090565b6040518060e00160405280600073ffffffffffffffffffffffffffffffffffffffff16815260200160608152602001606081526020016060815260200160008152602001600081526020016000600181111561158b5761158a612295565b5b81525090565b5b808211156115aa576000816000905550600101611592565b5090565b5b808211156115ce57600081816115c591906115d2565b506001016115af565b5090565b5080546115de9061218b565b6000825580601f106115f0575061160f565b601f01602090049060005260206000209081019061160e9190611591565b5b50565b600061162561162084611eda565b611eb5565b9050808382526020820190508285602086028201111561164857611647612356565b5b60005b8581101561169657813567ffffffffffffffff81111561166e5761166d612351565b5b80860161167b898261177c565b8552602085019450602084019350505060018101905061164b565b5050509392505050565b60006116b36116ae84611f06565b611eb5565b9050828152602081018484840111156116cf576116ce61235b565b5b6116da848285612149565b509392505050565b60006116f56116f084611f06565b611eb5565b9050828152602081018484840111156117115761171061235b565b5b61171c848285612158565b509392505050565b600081359050611733816124fd565b92915050565b600081519050611748816124fd565b92915050565b600082601f83011261176357611762612351565b5b8135611773848260208601611612565b91505092915050565b600082601f83011261179157611790612351565b5b81356117a18482602086016116a0565b91505092915050565b600082601f8301126117bf576117be612351565b5b81516117cf8482602086016116e2565b91505092915050565b6000813590506117e781612514565b92915050565b6000815190506117fc81612514565b92915050565b60006020828403121561181857611817612365565b5b600061182684828501611724565b91505092915050565b600080600080600060a0868803121561184b5761184a612365565b5b600061185988828901611739565b955050602086015167ffffffffffffffff81111561187a57611879612360565b5b611886888289016117aa565b945050604086015167ffffffffffffffff8111156118a7576118a6612360565b5b6118b3888289016117aa565b93505060606118c4888289016117ed565b92505060806118d5888289016117ed565b9150509295509295909350565b6000806000606084860312156118fb576118fa612365565b5b600084013567ffffffffffffffff81111561191957611918612360565b5b6119258682870161177c565b935050602084013567ffffffffffffffff81111561194657611945612360565b5b6119528682870161177c565b925050604084013567ffffffffffffffff81111561197357611972612360565b5b61197f8682870161174e565b9150509250925092565b60006020828403121561199f5761199e612365565b5b60006119ad848285016117d8565b91505092915050565b60006119c28383611a8a565b905092915050565b6119d3816120b2565b82525050565b6119e2816120b2565b82525050565b60006119f382611f47565b6119fd8185611f6a565b935083602082028501611a0f85611f37565b8060005b85811015611a4b5784840389528151611a2c85826119b6565b9450611a3783611f5d565b925060208a01995050600181019050611a13565b50829750879550505050505092915050565b611a6681612101565b82525050565b611a7581612113565b82525050565b611a8481612113565b82525050565b6000611a9582611f52565b611a9f8185611f7b565b9350611aaf818560208601612158565b611ab88161236a565b840191505092915050565b6000611ace82611f52565b611ad88185611f8c565b9350611ae8818560208601612158565b611af18161236a565b840191505092915050565b6000611b09602483611f8c565b9150611b148261237b565b604082019050919050565b6000611b2c600e83611f8c565b9150611b37826123ca565b602082019050919050565b6000611b4f600a83611f8c565b9150611b5a826123f3565b602082019050919050565b6000611b72600e83611f8c565b9150611b7d8261241c565b602082019050919050565b6000611b95601983611f8c565b9150611ba082612445565b602082019050919050565b6000611bb8601283611f8c565b9150611bc38261246e565b602082019050919050565b6000611bdb600b83611f8c565b9150611be682612497565b602082019050919050565b6000611bfe601183611f8c565b9150611c09826124c0565b602082019050919050565b600060e083016000830151611c2c60008601826119ca565b5060208301518482036020860152611c448282611a8a565b91505060408301518482036040860152611c5e8282611a8a565b91505060608301518482036060860152611c7882826119e8565b9150506080830151611c8d6080860182611cbe565b5060a0830151611ca060a0860182611cbe565b5060c0830151611cb360c0860182611a6c565b508091505092915050565b611cc7816120f7565b82525050565b611cd6816120f7565b82525050565b6000602082019050611cf160008301846119d9565b92915050565b6000604082019050611d0c60008301856119d9565b611d196020830184611ccd565b9392505050565b6000602082019050611d356000830184611a5d565b92915050565b6000602082019050611d506000830184611a7b565b92915050565b60006020820190508181036000830152611d708184611ac3565b905092915050565b60006020820190508181036000830152611d9181611afc565b9050919050565b60006020820190508181036000830152611db181611b1f565b9050919050565b60006020820190508181036000830152611dd181611b42565b9050919050565b60006020820190508181036000830152611df181611b65565b9050919050565b60006020820190508181036000830152611e1181611b88565b9050919050565b60006020820190508181036000830152611e3181611bab565b9050919050565b60006020820190508181036000830152611e5181611bce565b9050919050565b60006020820190508181036000830152611e7181611bf1565b9050919050565b60006020820190508181036000830152611e928184611c14565b905092915050565b6000602082019050611eaf6000830184611ccd565b92915050565b6000611ebf611ed0565b9050611ecb82826121bd565b919050565b6000604051905090565b600067ffffffffffffffff821115611ef557611ef4612322565b5b602082029050602081019050919050565b600067ffffffffffffffff821115611f2157611f20612322565b5b611f2a8261236a565b9050602081019050919050565b6000819050602082019050919050565b600081519050919050565b600081519050919050565b6000602082019050919050565b600082825260208201905092915050565b600082825260208201905092915050565b600082825260208201905092915050565b6000611fa8826120f7565b9150611fb3836120f7565b9250827fffffffffffffffffffffffffffffffffffffffffffffffffffffffffffffffff03821115611fe857611fe7612237565b5b828201905092915050565b6000611ffe826120f7565b9150612009836120f7565b92508261201957612018612266565b5b828204905092915050565b600061202f826120f7565b915061203a836120f7565b9250817fffffffffffffffffffffffffffffffffffffffffffffffffffffffffffffffff048311821515161561207357612072612237565b5b828202905092915050565b6000612089826120f7565b9150612094836120f7565b9250828210156120a7576120a6612237565b5b828203905092915050565b60006120bd826120d7565b9050919050565b60008190506120d2826124e9565b919050565b600073ffffffffffffffffffffffffffffffffffffffff82169050919050565b6000819050919050565b600061210c82612125565b9050919050565b600061211e826120c4565b9050919050565b600061213082612137565b9050919050565b6000612142826120d7565b9050919050565b82818337600083830152505050565b60005b8381101561217657808201518184015260208101905061215b565b83811115612185576000848401525b50505050565b600060028204905060018216806121a357607f821691505b602082108114156121b7576121b66122c4565b5b50919050565b6121c68261236a565b810181811067ffffffffffffffff821117156121e5576121e4612322565b5b80604052505050565b60006121f9826120f7565b91507fffffffffffffffffffffffffffffffffffffffffffffffffffffffffffffffff82141561222c5761222b612237565b5b600182019050919050565b7f4e487b7100000000000000000000000000000000000000000000000000000000600052601160045260246000fd5b7f4e487b7100000000000000000000000000000000000000000000000000000000600052601260045260246000fd5b7f4e487b7100000000000000000000000000000000000000000000000000000000600052602160045260246000fd5b7f4e487b7100000000000000000000000000000000000000000000000000000000600052602260045260246000fd5b7f4e487b7100000000000000000000000000000000000000000000000000000000600052603260045260246000fd5b7f4e487b7100000000000000000000000000000000000000000000000000000000600052604160045260246000fd5b600080fd5b600080fd5b600080fd5b600080fd5b600080fd5b6000601f19601f8301169050919050565b7f5061727469636970616e7473206e65656420746f206265206c6573732074686160008201527f6e20313000000000000000000000000000000000000000000000000000000000602082015250565b7f4e6f742072656769737465726564000000000000000000000000000000000000600082015250565b7f6f6e6c792061646d696e00000000000000000000000000000000000000000000600082015250565b7f4e6f207061727469636970616e74000000000000000000000000000000000000600082015250565b7f5072696365206d7573742067726561746572207468616e203000000000000000600082015250565b7f4f6e6c79206d61696e20636f6e74726163740000000000000000000000000000600082015250565b7f57726f6e67207374617465000000000000000000000000000000000000000000600082015250565b7f53657373696f6e20697320636c6f736564000000000000000000000000000000600082015250565b600281106124fa576124f9612295565b5b50565b612506816120b2565b811461251157600080fd5b50565b61251d816120f7565b811461252857600080fd5b5056fea2646970667358221220befc0fde6eacf6d7c1c540586d0fe696f4667b587aaf510af67ea2930d11484564736f6c63430008070033a264697066735822122019d3b0e5d169b8b77fb66964341d5344f3d23dc823852b0bb15d4db274d064a064736f6c63430008070033",
  "devdoc": {
    "kind": "dev",
    "methods": {},
    "version": 1
  },
  "userdoc": {
    "kind": "user",
    "methods": {},
    "version": 1
  },
  "storageLayout": {
    "storage": [
      {
        "astId": 6,
        "contract": "contracts/Main.sol:Main",
        "label": "participantKeys",
        "offset": 0,
        "slot": "0",
        "type": "t_array(t_address)dyn_storage"
      },
      {
        "astId": 11,
        "contract": "contracts/Main.sol:Main",
        "label": "participants",
        "offset": 0,
        "slot": "1",
        "type": "t_mapping(t_address,t_struct(Participant)983_storage)"
      },
      {
        "astId": 15,
        "contract": "contracts/Main.sol:Main",
        "label": "isSession",
        "offset": 0,
        "slot": "2",
        "type": "t_mapping(t_address,t_bool)"
      },
      {
        "astId": 19,
        "contract": "contracts/Main.sol:Main",
        "label": "sessions",
        "offset": 0,
        "slot": "3",
        "type": "t_array(t_contract(Session)967)dyn_storage"
      },
      {
        "astId": 21,
        "contract": "contracts/Main.sol:Main",
        "label": "admin",
        "offset": 0,
        "slot": "4",
        "type": "t_address"
      }
    ],
    "types": {
      "t_address": {
        "encoding": "inplace",
        "label": "address",
        "numberOfBytes": "20"
      },
      "t_array(t_address)dyn_storage": {
        "base": "t_address",
        "encoding": "dynamic_array",
        "label": "address[]",
        "numberOfBytes": "32"
      },
      "t_array(t_contract(Session)967)dyn_storage": {
        "base": "t_contract(Session)967",
        "encoding": "dynamic_array",
        "label": "contract Session[]",
        "numberOfBytes": "32"
      },
      "t_bool": {
        "encoding": "inplace",
        "label": "bool",
        "numberOfBytes": "1"
      },
      "t_contract(Session)967": {
        "encoding": "inplace",
        "label": "contract Session",
        "numberOfBytes": "20"
      },
      "t_mapping(t_address,t_bool)": {
        "encoding": "mapping",
        "key": "t_address",
        "label": "mapping(address => bool)",
        "numberOfBytes": "32",
        "value": "t_bool"
      },
      "t_mapping(t_address,t_struct(Participant)983_storage)": {
        "encoding": "mapping",
        "key": "t_address",
        "label": "mapping(address => struct Participant)",
        "numberOfBytes": "32",
        "value": "t_struct(Participant)983_storage"
      },
      "t_string_storage": {
        "encoding": "bytes",
        "label": "string",
        "numberOfBytes": "32"
      },
      "t_struct(Participant)983_storage": {
        "encoding": "inplace",
        "label": "struct Participant",
        "members": [
          {
            "astId": 974,
            "contract": "contracts/Main.sol:Main",
            "label": "account",
            "offset": 0,
            "slot": "0",
            "type": "t_address"
          },
          {
            "astId": 976,
            "contract": "contracts/Main.sol:Main",
            "label": "fullName",
            "offset": 0,
            "slot": "1",
            "type": "t_string_storage"
          },
          {
            "astId": 978,
            "contract": "contracts/Main.sol:Main",
            "label": "email",
            "offset": 0,
            "slot": "2",
            "type": "t_string_storage"
          },
          {
            "astId": 980,
            "contract": "contracts/Main.sol:Main",
            "label": "numberOfJoinedSession",
            "offset": 0,
            "slot": "3",
            "type": "t_uint256"
          },
          {
            "astId": 982,
            "contract": "contracts/Main.sol:Main",
            "label": "deviation",
            "offset": 0,
            "slot": "4",
            "type": "t_uint256"
          }
        ],
        "numberOfBytes": "160"
      },
      "t_uint256": {
        "encoding": "inplace",
        "label": "uint256",
        "numberOfBytes": "32"
      }
    }
  }
}