{
  "address": "0x0abEa554c7Fb90295b53FDd45e6486190baf9cf7",
  "abi": [
    {
      "inputs": [],
      "stateMutability": "nonpayable",
      "type": "constructor"
    },
    {
      "inputs": [],
      "name": "admin",
      "outputs": [
        {
          "internalType": "address",
          "name": "",
          "type": "address"
        }
      ],
      "stateMutability": "view",
      "type": "function"
    },
    {
      "inputs": [],
      "name": "checkRegistered",
      "outputs": [
        {
          "internalType": "address",
          "name": "",
          "type": "address"
        }
      ],
      "stateMutability": "view",
      "type": "function"
    },
    {
      "inputs": [
        {
          "internalType": "string",
          "name": "_productName",
          "type": "string"
        },
        {
          "internalType": "string",
          "name": "_productDescription",
          "type": "string"
        },
        {
          "internalType": "string[]",
          "name": "_productImages",
          "type": "string[]"
        },
        {
          "internalType": "uint256",
          "name": "_sessionDuration",
          "type": "uint256"
        }
      ],
      "name": "createNewSession",
      "outputs": [
        {
          "internalType": "contract Session",
          "name": "",
          "type": "address"
        }
      ],
      "stateMutability": "nonpayable",
      "type": "function"
    },
    {
      "inputs": [],
      "name": "getParticipant",
      "outputs": [
        {
          "components": [
            {
              "internalType": "address",
              "name": "account",
              "type": "address"
            },
            {
              "internalType": "string",
              "name": "fullName",
              "type": "string"
            },
            {
              "internalType": "string",
              "name": "email",
              "type": "string"
            },
            {
              "internalType": "uint256",
              "name": "numberOfJoinedSession",
              "type": "uint256"
            },
            {
              "internalType": "uint256",
              "name": "deviation",
              "type": "uint256"
            }
          ],
          "internalType": "struct Participant",
          "name": "",
          "type": "tuple"
        }
      ],
      "stateMutability": "view",
      "type": "function"
    },
    {
      "inputs": [],
      "name": "getParticipants",
      "outputs": [
        {
          "components": [
            {
              "internalType": "address",
              "name": "account",
              "type": "address"
            },
            {
              "internalType": "string",
              "name": "fullName",
              "type": "string"
            },
            {
              "internalType": "string",
              "name": "email",
              "type": "string"
            },
            {
              "internalType": "uint256",
              "name": "numberOfJoinedSession",
              "type": "uint256"
            },
            {
              "internalType": "uint256",
              "name": "deviation",
              "type": "uint256"
            }
          ],
          "internalType": "struct Participant[]",
          "name": "",
          "type": "tuple[]"
        }
      ],
      "stateMutability": "view",
      "type": "function"
    },
    {
      "inputs": [],
      "name": "getSessions",
      "outputs": [
        {
          "components": [
            {
              "internalType": "address",
              "name": "sessionAddress",
              "type": "address"
            },
            {
              "internalType": "string",
              "name": "productName",
              "type": "string"
            },
            {
              "internalType": "string",
              "name": "productDescription",
              "type": "string"
            },
            {
              "internalType": "string[]",
              "name": "productImages",
              "type": "string[]"
            },
            {
              "internalType": "uint256",
              "name": "finalPrice",
              "type": "uint256"
            },
            {
              "internalType": "uint256",
              "name": "proposedPrice",
              "type": "uint256"
            },
            {
              "internalType": "enum State",
              "name": "state",
              "type": "uint8"
            }
          ],
          "internalType": "struct SessionDetail[]",
          "name": "",
          "type": "tuple[]"
        }
      ],
      "stateMutability": "view",
      "type": "function"
    },
    {
      "inputs": [
        {
          "internalType": "address",
          "name": "_account",
          "type": "address"
        }
      ],
      "name": "incrementParticipantNumberOfSession",
      "outputs": [],
      "stateMutability": "nonpayable",
      "type": "function"
    },
    {
      "inputs": [
        {
          "internalType": "address",
          "name": "",
          "type": "address"
        }
      ],
      "name": "isSession",
      "outputs": [
        {
          "internalType": "bool",
          "name": "",
          "type": "bool"
        }
      ],
      "stateMutability": "view",
      "type": "function"
    },
    {
      "inputs": [
        {
          "internalType": "uint256",
          "name": "",
          "type": "uint256"
        }
      ],
      "name": "participantKeys",
      "outputs": [
        {
          "internalType": "address",
          "name": "",
          "type": "address"
        }
      ],
      "stateMutability": "view",
      "type": "function"
    },
    {
      "inputs": [
        {
          "internalType": "address",
          "name": "",
          "type": "address"
        }
      ],
      "name": "participants",
      "outputs": [
        {
          "internalType": "address",
          "name": "account",
          "type": "address"
        },
        {
          "internalType": "string",
          "name": "fullName",
          "type": "string"
        },
        {
          "internalType": "string",
          "name": "email",
          "type": "string"
        },
        {
          "internalType": "uint256",
          "name": "numberOfJoinedSession",
          "type": "uint256"
        },
        {
          "internalType": "uint256",
          "name": "deviation",
          "type": "uint256"
        }
      ],
      "stateMutability": "view",
      "type": "function"
    },
    {
      "inputs": [
        {
          "internalType": "string",
          "name": "_fullName",
          "type": "string"
        },
        {
          "internalType": "string",
          "name": "_email",
          "type": "string"
        }
      ],
      "name": "register",
      "outputs": [
        {
          "internalType": "bool",
          "name": "",
          "type": "bool"
        }
      ],
      "stateMutability": "nonpayable",
      "type": "function"
    },
    {
      "inputs": [
        {
          "internalType": "uint256",
          "name": "",
          "type": "uint256"
        }
      ],
      "name": "sessions",
      "outputs": [
        {
          "internalType": "contract Session",
          "name": "",
          "type": "address"
        }
      ],
      "stateMutability": "view",
      "type": "function"
    },
    {
      "inputs": [
        {
          "internalType": "string",
          "name": "_fullName",
          "type": "string"
        },
        {
          "internalType": "string",
          "name": "_email",
          "type": "string"
        }
      ],
      "name": "updateParticipantDetail",
      "outputs": [],
      "stateMutability": "nonpayable",
      "type": "function"
    },
    {
      "inputs": [
        {
          "internalType": "address",
          "name": "_account",
          "type": "address"
        },
        {
          "internalType": "uint256",
          "name": "_deviation",
          "type": "uint256"
        }
      ],
      "name": "updateParticipantDeviation",
      "outputs": [],
      "stateMutability": "nonpayable",
      "type": "function"
    },
    {
      "inputs": [
        {
          "internalType": "address",
          "name": "_sessionAddress",
          "type": "address"
        },
        {
          "internalType": "string",
          "name": "_productName",
          "type": "string"
        },
        {
          "internalType": "string",
          "name": "_productDescription",
          "type": "string"
        },
        {
          "internalType": "string[]",
          "name": "_productImages",
          "type": "string[]"
        }
      ],
      "name": "updateSessionDetail",
      "outputs": [],
      "stateMutability": "nonpayable",
      "type": "function"
    }
  ],
  "transactionHash": "0x51a5183f911d73a3eefb3822be33cd2f44015fd572d5324e4ea50f07e9a7a8bd",
  "args": [],
  "numDeployments": 1,
  "solcInputHash": "fe7815e0eb9bd9c44742af4f6d0a6189",
  "bytecode": "0x608060405234801561001057600080fd5b5033600460006101000a81548173ffffffffffffffffffffffffffffffffffffffff021916908373ffffffffffffffffffffffffffffffffffffffff160217905550615913806100616000396000f3fe60806040523480156200001157600080fd5b50600436106200010c5760003560e01c806383c4b7a311620000a5578063b52c4185116200006f578063b52c418514620002d5578063b9af3173146200030b578063dc15f9c2146200032b578063f851a4401462000361576200010c565b806383c4b7a31462000229578063888d602f146200025f578063937f4a26146200027f57806398bb0f3b146200029f576200010c565b8063492fb96011620000e7578063492fb96014620001a35780635aa68ac014620001c35780635b01fb3914620001e557806361503e451462000207576200010c565b806309e69ede146200011157806314b87862146200014b5780633ffbd47f146200016d575b600080fd5b6200012f600480360381019062000129919062001bbb565b62000383565b60405162000142959493929190620024fe565b60405180910390f35b62000155620004f9565b60405162000164919062002681565b60405180910390f35b6200018b600480360381019062000185919062001d03565b620007c5565b6040516200019a9190620025b1565b60405180910390f35b620001c16004803603810190620001bb919062001bbb565b620009ef565b005b620001cd62000ae3565b604051620001dc919062002569565b60405180910390f35b620001ef62000e21565b604051620001fe91906200243e565b60405180910390f35b6200021162000efd565b6040516200022091906200258d565b60405180910390f35b62000247600480360381019062000241919062001ea8565b62001081565b604051620002569190620025ce565b60405180910390f35b6200027d600480360381019062000277919062001bed565b620010c1565b005b6200029d600480360381019062000297919062001cbc565b6200119b565b005b620002bd6004803603810190620002b7919062001ea8565b6200127c565b604051620002cc91906200243e565b60405180910390f35b620002f36004803603810190620002ed919062001d88565b620012bc565b604051620003029190620025ce565b60405180910390f35b62000329600480360381019062000323919062001d03565b6200144e565b005b62000349600480360381019062000343919062001bbb565b620015d9565b604051620003589190620025b1565b60405180910390f35b6200036b620015f9565b6040516200037a91906200243e565b60405180910390f35b60016020528060005260406000206000915090508060000160009054906101000a900473ffffffffffffffffffffffffffffffffffffffff1690806001018054620003ce9062002981565b80601f0160208091040260200160405190810160405280929190818152602001828054620003fc9062002981565b80156200044d5780601f1062000421576101008083540402835291602001916200044d565b820191906000526020600020905b8154815290600101906020018083116200042f57829003601f168201915b505050505090806002018054620004649062002981565b80601f0160208091040260200160405190810160405280929190818152602001828054620004929062002981565b8015620004e35780601f10620004b757610100808354040283529160200191620004e3565b820191906000526020600020905b815481529060010190602001808311620004c557829003601f168201915b5050505050908060030154908060040154905085565b620005036200161f565b600073ffffffffffffffffffffffffffffffffffffffff16600160003373ffffffffffffffffffffffffffffffffffffffff1673ffffffffffffffffffffffffffffffffffffffff16815260200190815260200160002060000160009054906101000a900473ffffffffffffffffffffffffffffffffffffffff1673ffffffffffffffffffffffffffffffffffffffff161415620005d8576040517f08c379a0000000000000000000000000000000000000000000000000000000008152600401620005cf906200263d565b60405180910390fd5b600160003373ffffffffffffffffffffffffffffffffffffffff1673ffffffffffffffffffffffffffffffffffffffff1681526020019081526020016000206040518060a00160405290816000820160009054906101000a900473ffffffffffffffffffffffffffffffffffffffff1673ffffffffffffffffffffffffffffffffffffffff1673ffffffffffffffffffffffffffffffffffffffff1681526020016001820180546200068a9062002981565b80601f0160208091040260200160405190810160405280929190818152602001828054620006b89062002981565b8015620007095780601f10620006dd5761010080835404028352916020019162000709565b820191906000526020600020905b815481529060010190602001808311620006eb57829003601f168201915b50505050508152602001600282018054620007249062002981565b80601f0160208091040260200160405190810160405280929190818152602001828054620007529062002981565b8015620007a35780601f106200077757610100808354040283529160200191620007a3565b820191906000526020600020905b8154815290600101906020018083116200078557829003601f168201915b5050505050815260200160038201548152602001600482015481525050905090565b60008073ffffffffffffffffffffffffffffffffffffffff16600160003373ffffffffffffffffffffffffffffffffffffffff1673ffffffffffffffffffffffffffffffffffffffff16815260200190815260200160002060000160009054906101000a900473ffffffffffffffffffffffffffffffffffffffff1673ffffffffffffffffffffffffffffffffffffffff16146200086257600080fd5b60006040518060a001604052803373ffffffffffffffffffffffffffffffffffffffff168152602001858152602001848152602001600081526020016000815250905080600160003373ffffffffffffffffffffffffffffffffffffffff1673ffffffffffffffffffffffffffffffffffffffff16815260200190815260200160002060008201518160000160006101000a81548173ffffffffffffffffffffffffffffffffffffffff021916908373ffffffffffffffffffffffffffffffffffffffff16021790555060208201518160010190805190602001906200094a92919062001664565b5060408201518160020190805190602001906200096992919062001664565b5060608201518160030155608082015181600401559050506000339080600181540180825580915050600190039060005260206000200160009091909190916101000a81548173ffffffffffffffffffffffffffffffffffffffff021916908373ffffffffffffffffffffffffffffffffffffffff160217905550600191505092915050565b60011515600260003373ffffffffffffffffffffffffffffffffffffffff1673ffffffffffffffffffffffffffffffffffffffff16815260200190815260200160002060009054906101000a900460ff1615151462000a85576040517f08c379a000000000000000000000000000000000000000000000000000000000815260040162000a7c906200265f565b60405180910390fd5b60018060008373ffffffffffffffffffffffffffffffffffffffff1673ffffffffffffffffffffffffffffffffffffffff168152602001908152602001600020600301600082825462000ad991906200281c565b9250508190555050565b6060600460009054906101000a900473ffffffffffffffffffffffffffffffffffffffff1673ffffffffffffffffffffffffffffffffffffffff163373ffffffffffffffffffffffffffffffffffffffff161462000b4057600080fd5b6000808054905067ffffffffffffffff81111562000b635762000b6262002af7565b5b60405190808252806020026020018201604052801562000ba057816020015b62000b8c6200161f565b81526020019060019003908162000b825790505b50905060005b60008054905081101562000e195760006001600080848154811062000bd05762000bcf62002ac8565b5b9060005260206000200160009054906101000a900473ffffffffffffffffffffffffffffffffffffffff1673ffffffffffffffffffffffffffffffffffffffff1673ffffffffffffffffffffffffffffffffffffffff1681526020019081526020016000206040518060a00160405290816000820160009054906101000a900473ffffffffffffffffffffffffffffffffffffffff1673ffffffffffffffffffffffffffffffffffffffff1673ffffffffffffffffffffffffffffffffffffffff16815260200160018201805462000ca89062002981565b80601f016020809104026020016040519081016040528092919081815260200182805462000cd69062002981565b801562000d275780601f1062000cfb5761010080835404028352916020019162000d27565b820191906000526020600020905b81548152906001019060200180831162000d0957829003601f168201915b5050505050815260200160028201805462000d429062002981565b80601f016020809104026020016040519081016040528092919081815260200182805462000d709062002981565b801562000dc15780601f1062000d955761010080835404028352916020019162000dc1565b820191906000526020600020905b81548152906001019060200180831162000da357829003601f168201915b505050505081526020016003820154815260200160048201548152505090508083838151811062000df75762000df662002ac8565b5b602002602001018190525050808062000e1090620029ed565b91505062000ba6565b508091505090565b60008073ffffffffffffffffffffffffffffffffffffffff16600160003373ffffffffffffffffffffffffffffffffffffffff1673ffffffffffffffffffffffffffffffffffffffff16815260200190815260200160002060000160009054906101000a900473ffffffffffffffffffffffffffffffffffffffff1673ffffffffffffffffffffffffffffffffffffffff16141562000ef7576040517f08c379a000000000000000000000000000000000000000000000000000000000815260040162000eee906200263d565b60405180910390fd5b33905090565b6060600060038054905067ffffffffffffffff81111562000f235762000f2262002af7565b5b60405190808252806020026020018201604052801562000f6057816020015b62000f4c620016f5565b81526020019060019003908162000f425790505b50905060005b600380549050811015620010795760006003828154811062000f8d5762000f8c62002ac8565b5b9060005260206000200160009054906101000a900473ffffffffffffffffffffffffffffffffffffffff1673ffffffffffffffffffffffffffffffffffffffff1663f8cb00bf6040518163ffffffff1660e01b815260040160006040518083038186803b15801562000ffe57600080fd5b505afa15801562001013573d6000803e3d6000fd5b505050506040513d6000823e3d601f19601f820116820180604052508101906200103e919062001e57565b90508083838151811062001057576200105662002ac8565b5b60200260200101819052505080806200107090620029ed565b91505062000f66565b508091505090565b600381815481106200109257600080fd5b906000526020600020016000915054906101000a900473ffffffffffffffffffffffffffffffffffffffff1681565b600460009054906101000a900473ffffffffffffffffffffffffffffffffffffffff1673ffffffffffffffffffffffffffffffffffffffff163373ffffffffffffffffffffffffffffffffffffffff16146200111c57600080fd5b60008490508073ffffffffffffffffffffffffffffffffffffffff16639b4976c48585856040518463ffffffff1660e01b81526004016200116093929190620025eb565b600060405180830381600087803b1580156200117b57600080fd5b505af115801562001190573d6000803e3d6000fd5b505050505050505050565b60011515600260003373ffffffffffffffffffffffffffffffffffffffff1673ffffffffffffffffffffffffffffffffffffffff16815260200190815260200160002060009054906101000a900460ff1615151462001231576040517f08c379a000000000000000000000000000000000000000000000000000000000815260040162001228906200265f565b60405180910390fd5b80600160008473ffffffffffffffffffffffffffffffffffffffff1673ffffffffffffffffffffffffffffffffffffffff168152602001908152602001600020600401819055505050565b600081815481106200128d57600080fd5b906000526020600020016000915054906101000a900473ffffffffffffffffffffffffffffffffffffffff1681565b6000600460009054906101000a900473ffffffffffffffffffffffffffffffffffffffff1673ffffffffffffffffffffffffffffffffffffffff163373ffffffffffffffffffffffffffffffffffffffff16146200131957600080fd5b600030600460009054906101000a900473ffffffffffffffffffffffffffffffffffffffff168787876000808960405162001354906200175d565b620013679897969594939291906200245b565b604051809103906000f08015801562001384573d6000803e3d6000fd5b5090506003819080600181540180825580915050600190039060005260206000200160009091909190916101000a81548173ffffffffffffffffffffffffffffffffffffffff021916908373ffffffffffffffffffffffffffffffffffffffff1602179055506001600260008373ffffffffffffffffffffffffffffffffffffffff1673ffffffffffffffffffffffffffffffffffffffff16815260200190815260200160002060006101000a81548160ff02191690831515021790555080915050949350505050565b600073ffffffffffffffffffffffffffffffffffffffff16600160003373ffffffffffffffffffffffffffffffffffffffff1673ffffffffffffffffffffffffffffffffffffffff16815260200190815260200160002060000160009054906101000a900473ffffffffffffffffffffffffffffffffffffffff1673ffffffffffffffffffffffffffffffffffffffff16141562001523576040517f08c379a00000000000000000000000000000000000000000000000000000000081526004016200151a906200263d565b60405180910390fd5b81600160003373ffffffffffffffffffffffffffffffffffffffff1673ffffffffffffffffffffffffffffffffffffffff16815260200190815260200160002060010190805190602001906200157b92919062001664565b5080600160003373ffffffffffffffffffffffffffffffffffffffff1673ffffffffffffffffffffffffffffffffffffffff1681526020019081526020016000206002019080519060200190620015d492919062001664565b505050565b60026020528060005260406000206000915054906101000a900460ff1681565b600460009054906101000a900473ffffffffffffffffffffffffffffffffffffffff1681565b6040518060a00160405280600073ffffffffffffffffffffffffffffffffffffffff168152602001606081526020016060815260200160008152602001600081525090565b828054620016729062002981565b90600052602060002090601f016020900481019282620016965760008555620016e2565b82601f10620016b157805160ff1916838001178555620016e2565b82800160010185558215620016e2579182015b82811115620016e1578251825591602001919060010190620016c4565b5b509050620016f191906200176b565b5090565b6040518060e00160405280600073ffffffffffffffffffffffffffffffffffffffff16815260200160608152602001606081526020016060815260200160008152602001600081526020016000600181111562001757576200175662002a6a565b5b81525090565b612cd58062002c0983390190565b5b80821115620017865760008160009055506001016200176c565b5090565b6000620017a16200179b84620026ce565b620026a5565b90508083825260208201905082856020860282011115620017c757620017c662002b35565b5b60005b858110156200181c57813567ffffffffffffffff811115620017f157620017f062002b26565b5b80860162001800898262001a03565b85526020850194506020840193505050600181019050620017ca565b5050509392505050565b60006200183d6200183784620026ce565b620026a5565b9050808382526020820190508285602086028201111562001863576200186262002b35565b5b60005b85811015620018b857815167ffffffffffffffff8111156200188d576200188c62002b26565b5b8086016200189c898262001a36565b8552602085019450602084019350505060018101905062001866565b5050509392505050565b6000620018d9620018d384620026fd565b620026a5565b905082815260208101848484011115620018f857620018f762002b3a565b5b620019058482856200293c565b509392505050565b6000620019246200191e84620026fd565b620026a5565b90508281526020810184848401111562001943576200194262002b3a565b5b620019508482856200294b565b509392505050565b600081359050620019698162002bc3565b92915050565b600081519050620019808162002bc3565b92915050565b600082601f8301126200199e576200199d62002b26565b5b8135620019b08482602086016200178a565b91505092915050565b600082601f830112620019d157620019d062002b26565b5b8151620019e384826020860162001826565b91505092915050565b600081519050620019fd8162002bdd565b92915050565b600082601f83011262001a1b5762001a1a62002b26565b5b813562001a2d848260208601620018c2565b91505092915050565b600082601f83011262001a4e5762001a4d62002b26565b5b815162001a608482602086016200190d565b91505092915050565b600060e0828403121562001a825762001a8162002b2b565b5b62001a8e60e0620026a5565b9050600062001aa0848285016200196f565b600083015250602082015167ffffffffffffffff81111562001ac75762001ac662002b30565b5b62001ad58482850162001a36565b602083015250604082015167ffffffffffffffff81111562001afc5762001afb62002b30565b5b62001b0a8482850162001a36565b604083015250606082015167ffffffffffffffff81111562001b315762001b3062002b30565b5b62001b3f84828501620019b9565b606083015250608062001b558482850162001ba4565b60808301525060a062001b6b8482850162001ba4565b60a08301525060c062001b8184828501620019ec565b60c08301525092915050565b60008135905062001b9e8162002bee565b92915050565b60008151905062001bb58162002bee565b92915050565b60006020828403121562001bd45762001bd362002b44565b5b600062001be48482850162001958565b91505092915050565b6000806000806080858703121562001c0a5762001c0962002b44565b5b600062001c1a8782880162001958565b945050602085013567ffffffffffffffff81111562001c3e5762001c3d62002b3f565b5b62001c4c8782880162001a03565b935050604085013567ffffffffffffffff81111562001c705762001c6f62002b3f565b5b62001c7e8782880162001a03565b925050606085013567ffffffffffffffff81111562001ca25762001ca162002b3f565b5b62001cb08782880162001986565b91505092959194509250565b6000806040838503121562001cd65762001cd562002b44565b5b600062001ce68582860162001958565b925050602062001cf98582860162001b8d565b9150509250929050565b6000806040838503121562001d1d5762001d1c62002b44565b5b600083013567ffffffffffffffff81111562001d3e5762001d3d62002b3f565b5b62001d4c8582860162001a03565b925050602083013567ffffffffffffffff81111562001d705762001d6f62002b3f565b5b62001d7e8582860162001a03565b9150509250929050565b6000806000806080858703121562001da55762001da462002b44565b5b600085013567ffffffffffffffff81111562001dc65762001dc562002b3f565b5b62001dd48782880162001a03565b945050602085013567ffffffffffffffff81111562001df85762001df762002b3f565b5b62001e068782880162001a03565b935050604085013567ffffffffffffffff81111562001e2a5762001e2962002b3f565b5b62001e388782880162001986565b925050606062001e4b8782880162001b8d565b91505092959194509250565b60006020828403121562001e705762001e6f62002b44565b5b600082015167ffffffffffffffff81111562001e915762001e9062002b3f565b5b62001e9f8482850162001a69565b91505092915050565b60006020828403121562001ec15762001ec062002b44565b5b600062001ed18482850162001b8d565b91505092915050565b600062001ee8838362002186565b905092915050565b600062001efe838362002256565b905092915050565b600062001f14838362002364565b905092915050565b62001f278162002879565b82525050565b62001f388162002879565b82525050565b600062001f4b8262002763565b62001f578185620027b6565b93508360208202850162001f6b8562002733565b8060005b8581101562001fad578484038952815162001f8b858262001eda565b945062001f98836200278f565b925060208a0199505060018101905062001f6f565b50829750879550505050505092915050565b600062001fcc8262002763565b62001fd88185620027c7565b93508360208202850162001fec8562002733565b8060005b858110156200202e57848403895281516200200c858262001eda565b945062002019836200278f565b925060208a0199505060018101905062001ff0565b50829750879550505050505092915050565b60006200204d826200276e565b620020598185620027d8565b9350836020820285016200206d8562002743565b8060005b85811015620020af57848403895281516200208d858262001ef0565b94506200209a836200279c565b925060208a0199505060018101905062002071565b50829750879550505050505092915050565b6000620020ce8262002779565b620020da8185620027e9565b935083602082028501620020ee8562002753565b8060005b858110156200213057848403895281516200210e858262001f06565b94506200211b83620027a9565b925060208a01995050600181019050620020f2565b50829750879550505050505092915050565b6200214d816200288d565b82525050565b6200215e81620028d8565b82525050565b6200216f81620028ec565b82525050565b620021808162002900565b82525050565b6000620021938262002784565b6200219f8185620027fa565b9350620021b18185602086016200294b565b620021bc8162002b49565b840191505092915050565b6000620021d48262002784565b620021e081856200280b565b9350620021f28185602086016200294b565b620021fd8162002b49565b840191505092915050565b600062002217600e836200280b565b9150620022248262002b5a565b602082019050919050565b60006200223e600b836200280b565b91506200224b8262002b83565b602082019050919050565b600060a08301600083015162002270600086018262001f1c565b50602083015184820360208601526200228a828262002186565b91505060408301518482036040860152620022a6828262002186565b9150506060830151620022bd60608601826200241c565b506080830151620022d260808601826200241c565b508091505092915050565b600060a083016000830151620022f7600086018262001f1c565b506020830151848203602086015262002311828262002186565b915050604083015184820360408601526200232d828262002186565b91505060608301516200234460608601826200241c565b5060808301516200235960808601826200241c565b508091505092915050565b600060e0830160008301516200237e600086018262001f1c565b506020830151848203602086015262002398828262002186565b91505060408301518482036040860152620023b4828262002186565b91505060608301518482036060860152620023d0828262001f3e565b9150506080830151620023e760808601826200241c565b5060a0830151620023fc60a08601826200241c565b5060c08301516200241160c086018262002164565b508091505092915050565b6200242781620028ce565b82525050565b6200243881620028ce565b82525050565b600060208201905062002455600083018462001f2d565b92915050565b60006101008201905062002473600083018b62001f2d565b62002482602083018a62001f2d565b8181036040830152620024968189620021c7565b90508181036060830152620024ac8188620021c7565b90508181036080830152620024c2818762001fbf565b9050620024d360a083018662002175565b620024e260c083018562002175565b620024f160e08301846200242d565b9998505050505050505050565b600060a08201905062002515600083018862001f2d565b8181036020830152620025298187620021c7565b905081810360408301526200253f8186620021c7565b90506200255060608301856200242d565b6200255f60808301846200242d565b9695505050505050565b6000602082019050818103600083015262002585818462002040565b905092915050565b60006020820190508181036000830152620025a98184620020c1565b905092915050565b6000602082019050620025c8600083018462002142565b92915050565b6000602082019050620025e5600083018462002153565b92915050565b60006060820190508181036000830152620026078186620021c7565b905081810360208301526200261d8185620021c7565b9050818103604083015262002633818462001fbf565b9050949350505050565b60006020820190508181036000830152620026588162002208565b9050919050565b600060208201905081810360008301526200267a816200222f565b9050919050565b600060208201905081810360008301526200269d8184620022dd565b905092915050565b6000620026b1620026c4565b9050620026bf8282620029b7565b919050565b6000604051905090565b600067ffffffffffffffff821115620026ec57620026eb62002af7565b5b602082029050602081019050919050565b600067ffffffffffffffff8211156200271b576200271a62002af7565b5b620027268262002b49565b9050602081019050919050565b6000819050602082019050919050565b6000819050602082019050919050565b6000819050602082019050919050565b600081519050919050565b600081519050919050565b600081519050919050565b600081519050919050565b6000602082019050919050565b6000602082019050919050565b6000602082019050919050565b600082825260208201905092915050565b600082825260208201905092915050565b600082825260208201905092915050565b600082825260208201905092915050565b600082825260208201905092915050565b600082825260208201905092915050565b60006200282982620028ce565b91506200283683620028ce565b9250827fffffffffffffffffffffffffffffffffffffffffffffffffffffffffffffffff038211156200286e576200286d62002a3b565b5b828201905092915050565b60006200288682620028ae565b9050919050565b60008115159050919050565b6000819050620028a98262002bac565b919050565b600073ffffffffffffffffffffffffffffffffffffffff82169050919050565b6000819050919050565b6000620028e58262002914565b9050919050565b6000620028f98262002899565b9050919050565b60006200290d82620028ce565b9050919050565b6000620029218262002928565b9050919050565b60006200293582620028ae565b9050919050565b82818337600083830152505050565b60005b838110156200296b5780820151818401526020810190506200294e565b838111156200297b576000848401525b50505050565b600060028204905060018216806200299a57607f821691505b60208210811415620029b157620029b062002a99565b5b50919050565b620029c28262002b49565b810181811067ffffffffffffffff82111715620029e457620029e362002af7565b5b80604052505050565b6000620029fa82620028ce565b91507fffffffffffffffffffffffffffffffffffffffffffffffffffffffffffffffff82141562002a305762002a2f62002a3b565b5b600182019050919050565b7f4e487b7100000000000000000000000000000000000000000000000000000000600052601160045260246000fd5b7f4e487b7100000000000000000000000000000000000000000000000000000000600052602160045260246000fd5b7f4e487b7100000000000000000000000000000000000000000000000000000000600052602260045260246000fd5b7f4e487b7100000000000000000000000000000000000000000000000000000000600052603260045260246000fd5b7f4e487b7100000000000000000000000000000000000000000000000000000000600052604160045260246000fd5b600080fd5b600080fd5b600080fd5b600080fd5b600080fd5b600080fd5b600080fd5b6000601f19601f8301169050919050565b7f4e6f742072656769737465726564000000000000000000000000000000000000600082015250565b7f4e6f742073657373696f6e000000000000000000000000000000000000000000600082015250565b6002811062002bc05762002bbf62002a6a565b5b50565b62002bce8162002879565b811462002bda57600080fd5b50565b6002811062002beb57600080fd5b50565b62002bf981620028ce565b811462002c0557600080fd5b5056fe60a06040523480156200001157600080fd5b5060405162002cd538038062002cd583398181016040528101906200003791906200045d565b87600860006101000a81548173ffffffffffffffffffffffffffffffffffffffff021916908373ffffffffffffffffffffffffffffffffffffffff16021790555086600760006101000a81548173ffffffffffffffffffffffffffffffffffffffff021916908373ffffffffffffffffffffffffffffffffffffffff160217905550826005819055508560009080519060200190620000d89291906200015d565b508460019080519060200190620000f19291906200015d565b5083600290805190602001906200010a929190620001ee565b50816006819055506000600860146101000a81548160ff021916908360018111156200013b576200013a620006f1565b5b02179055504260808181525050806009819055505050505050505050620007dc565b8280546200016b9062000685565b90600052602060002090601f0160209004810192826200018f5760008555620001db565b82601f10620001aa57805160ff1916838001178555620001db565b82800160010185558215620001db579182015b82811115620001da578251825591602001919060010190620001bd565b5b509050620001ea919062000255565b5090565b82805482825590600052602060002090810192821562000242579160200282015b8281111562000241578251829080519060200190620002309291906200015d565b50916020019190600101906200020f565b5b50905062000251919062000274565b5090565b5b808211156200027057600081600090555060010162000256565b5090565b5b808211156200029857600081816200028e91906200029c565b5060010162000275565b5090565b508054620002aa9062000685565b6000825580601f10620002be5750620002df565b601f016020900490600052602060002090810190620002de919062000255565b5b50565b6000620002f9620002f384620005ac565b62000583565b905080838252602082019050828560208602820111156200031f576200031e62000783565b5b60005b858110156200037457815167ffffffffffffffff8111156200034957620003486200077e565b5b80860162000358898262000413565b8552602085019450602084019350505060018101905062000322565b5050509392505050565b6000620003956200038f84620005db565b62000583565b905082815260208101848484011115620003b457620003b362000788565b5b620003c18482856200064f565b509392505050565b600081519050620003da81620007a8565b92915050565b600082601f830112620003f857620003f76200077e565b5b81516200040a848260208601620002e2565b91505092915050565b600082601f8301126200042b576200042a6200077e565b5b81516200043d8482602086016200037e565b91505092915050565b6000815190506200045781620007c2565b92915050565b600080600080600080600080610100898b03121562000481576200048062000792565b5b6000620004918b828c01620003c9565b9850506020620004a48b828c01620003c9565b975050604089015167ffffffffffffffff811115620004c857620004c76200078d565b5b620004d68b828c0162000413565b965050606089015167ffffffffffffffff811115620004fa57620004f96200078d565b5b620005088b828c0162000413565b955050608089015167ffffffffffffffff8111156200052c576200052b6200078d565b5b6200053a8b828c01620003e0565b94505060a06200054d8b828c0162000446565b93505060c0620005608b828c0162000446565b92505060e0620005738b828c0162000446565b9150509295985092959890939650565b60006200058f620005a2565b90506200059d8282620006bb565b919050565b6000604051905090565b600067ffffffffffffffff821115620005ca57620005c96200074f565b5b602082029050602081019050919050565b600067ffffffffffffffff821115620005f957620005f86200074f565b5b620006048262000797565b9050602081019050919050565b60006200061e8262000625565b9050919050565b600073ffffffffffffffffffffffffffffffffffffffff82169050919050565b6000819050919050565b60005b838110156200066f57808201518184015260208101905062000652565b838111156200067f576000848401525b50505050565b600060028204905060018216806200069e57607f821691505b60208210811415620006b557620006b462000720565b5b50919050565b620006c68262000797565b810181811067ffffffffffffffff82111715620006e857620006e76200074f565b5b80604052505050565b7f4e487b7100000000000000000000000000000000000000000000000000000000600052602160045260246000fd5b7f4e487b7100000000000000000000000000000000000000000000000000000000600052602260045260246000fd5b7f4e487b7100000000000000000000000000000000000000000000000000000000600052604160045260246000fd5b600080fd5b600080fd5b600080fd5b600080fd5b600080fd5b6000601f19601f8301169050919050565b620007b38162000611565b8114620007bf57600080fd5b50565b620007cd8162000645565b8114620007d957600080fd5b50565b6080516124dd620007f86000396000610c6701526124dd6000f3fe608060405234801561001057600080fd5b50600436106100f55760003560e01c8063a6b513ee11610097578063e3635bfd11610066578063e3635bfd14610262578063f212597e14610280578063f851a4401461029e578063f8cb00bf146102bc576100f5565b8063a6b513ee146101d8578063c19d93fb146101f6578063cd9b7ecb14610214578063d270e7ab14610244576100f5565b80638a30f8cc116100d35780638a30f8cc146101645780639b4976c4146101825780639ce05df71461019e578063a618b74e146101bc576100f5565b80632d5be77f146100fa578063705c1a11146101165780637f7650eb14610146575b600080fd5b610114600480360381019061010f9190611905565b6102da565b005b610130600480360381019061012b9190611905565b610776565b60405161013d9190611c58565b60405180910390f35b61014e6107b5565b60405161015b9190611cd2565b60405180910390f35b61016c610843565b6040516101799190611cd2565b60405180910390f35b61019c6004803603810190610197919061185e565b6108d1565b005b6101a6610a23565b6040516101b39190611e16565b60405180910390f35b6101d660048036038101906101d19190611905565b610a2d565b005b6101e0610d8d565b6040516101ed9190611e16565b60405180910390f35b6101fe610d93565b60405161020b9190611cb7565b60405180910390f35b61022e6004803603810190610229919061177e565b610da6565b60405161023b9190611e16565b60405180910390f35b61024c610dbe565b6040516102599190611c9c565b60405180910390f35b61026a610de4565b6040516102779190611e16565b60405180910390f35b610288610dea565b6040516102959190611e16565b60405180910390f35b6102a6611088565b6040516102b39190611c58565b60405180910390f35b6102c46110ae565b6040516102d19190611df4565b60405180910390f35b600760009054906101000a900473ffffffffffffffffffffffffffffffffffffffff1673ffffffffffffffffffffffffffffffffffffffff163373ffffffffffffffffffffffffffffffffffffffff161461036a576040517f08c379a000000000000000000000000000000000000000000000000000000000815260040161036190611d34565b60405180910390fd5b600080600181111561037f5761037e612211565b5b600860149054906101000a900460ff1660018111156103a1576103a0612211565b5b146103e1576040517f08c379a00000000000000000000000000000000000000000000000000000000081526004016103d890611db4565b60405180910390fd5b60008210156103ef57600080fd5b6001600860146101000a81548160ff0219169083600181111561041557610414612211565b5b02179055508160068190555060005b60038054905081101561077157600080600860009054906101000a900473ffffffffffffffffffffffffffffffffffffffff1673ffffffffffffffffffffffffffffffffffffffff166309e69ede600385815481106104865761048561226f565b5b9060005260206000200160009054906101000a900473ffffffffffffffffffffffffffffffffffffffff166040518263ffffffff1660e01b81526004016104cd9190611c58565b60006040518083038186803b1580156104e557600080fd5b505afa1580156104f9573d6000803e3d6000fd5b505050506040513d6000823e3d601f19601f8201168201806040525081019061052291906117ab565b9450945050505060006105b160046000600387815481106105465761054561226f565b5b9060005260206000200160009054906101000a900473ffffffffffffffffffffffffffffffffffffffff1673ffffffffffffffffffffffffffffffffffffffff1673ffffffffffffffffffffffffffffffffffffffff16815260200190815260200160002054611314565b905060006105c0838584611389565b9050600860009054906101000a900473ffffffffffffffffffffffffffffffffffffffff1673ffffffffffffffffffffffffffffffffffffffff1663937f4a26600387815481106106145761061361226f565b5b9060005260206000200160009054906101000a900473ffffffffffffffffffffffffffffffffffffffff16836040518363ffffffff1660e01b815260040161065d929190611c73565b600060405180830381600087803b15801561067757600080fd5b505af115801561068b573d6000803e3d6000fd5b50505050600860009054906101000a900473ffffffffffffffffffffffffffffffffffffffff1673ffffffffffffffffffffffffffffffffffffffff1663492fb960600387815481106106e1576106e061226f565b5b9060005260206000200160009054906101000a900473ffffffffffffffffffffffffffffffffffffffff166040518263ffffffff1660e01b81526004016107289190611c58565b600060405180830381600087803b15801561074257600080fd5b505af1158015610756573d6000803e3d6000fd5b505050505050505080806107699061216a565b915050610424565b505050565b6003818154811061078657600080fd5b906000526020600020016000915054906101000a900473ffffffffffffffffffffffffffffffffffffffff1681565b600080546107c290612107565b80601f01602080910402602001604051908101604052809291908181526020018280546107ee90612107565b801561083b5780601f106108105761010080835404028352916020019161083b565b820191906000526020600020905b81548152906001019060200180831161081e57829003601f168201915b505050505081565b6001805461085090612107565b80601f016020809104026020016040519081016040528092919081815260200182805461087c90612107565b80156108c95780601f1061089e576101008083540402835291602001916108c9565b820191906000526020600020905b8154815290600101906020018083116108ac57829003601f168201915b505050505081565b600860009054906101000a900473ffffffffffffffffffffffffffffffffffffffff1673ffffffffffffffffffffffffffffffffffffffff163373ffffffffffffffffffffffffffffffffffffffff1614610961576040517f08c379a000000000000000000000000000000000000000000000000000000000815260040161095890611d94565b60405180910390fd5b600080600181111561097657610975612211565b5b600860149054906101000a900460ff16600181111561099857610997612211565b5b146109d8576040517f08c379a00000000000000000000000000000000000000000000000000000000081526004016109cf90611db4565b60405180910390fd5b83600090805190602001906109ee9291906113c2565b508260019080519060200190610a059291906113c2565b508160029080519060200190610a1c929190611448565b5050505050565b6000600654905090565b6000600860009054906101000a900473ffffffffffffffffffffffffffffffffffffffff1673ffffffffffffffffffffffffffffffffffffffff166309e69ede336040518263ffffffff1660e01b8152600401610a8a9190611c58565b60006040518083038186803b158015610aa257600080fd5b505afa158015610ab6573d6000803e3d6000fd5b505050506040513d6000823e3d601f19601f82011682018060405250810190610adf91906117ab565b505050509050600073ffffffffffffffffffffffffffffffffffffffff168173ffffffffffffffffffffffffffffffffffffffff161415610b55576040517f08c379a0000000000000000000000000000000000000000000000000000000008152600401610b4c90611d14565b60405180910390fd5b6000806001811115610b6a57610b69612211565b5b600860149054906101000a900460ff166001811115610b8c57610b8b612211565b5b14610bcc576040517f08c379a0000000000000000000000000000000000000000000000000000000008152600401610bc390611db4565b60405180910390fd5b60008311610c0f576040517f08c379a0000000000000000000000000000000000000000000000000000000008152600401610c0690611d74565b60405180910390fd5b600a60038054905010610c57576040517f08c379a0000000000000000000000000000000000000000000000000000000008152600401610c4e90611cf4565b60405180910390fd5b60006009541115610cd3576009547f0000000000000000000000000000000000000000000000000000000000000000610c909190611f19565b421115610cd2576040517f08c379a0000000000000000000000000000000000000000000000000000000008152600401610cc990611dd4565b60405180910390fd5b5b82600460003373ffffffffffffffffffffffffffffffffffffffff1673ffffffffffffffffffffffffffffffffffffffff168152602001908152602001600020819055506003339080600181540180825580915050600190039060005260206000200160009091909190916101000a81548173ffffffffffffffffffffffffffffffffffffffff021916908373ffffffffffffffffffffffffffffffffffffffff160217905550610d82610dea565b600581905550505050565b60065481565b600860149054906101000a900460ff1681565b60046020528060005260406000206000915090505481565b600860009054906101000a900473ffffffffffffffffffffffffffffffffffffffff1681565b60055481565b60008060038054905011610e33576040517f08c379a0000000000000000000000000000000000000000000000000000000008152600401610e2a90611d54565b60405180910390fd5b600080600080600090505b60038054905081101561102b576000600860009054906101000a900473ffffffffffffffffffffffffffffffffffffffff1673ffffffffffffffffffffffffffffffffffffffff166309e69ede60038481548110610e9f57610e9e61226f565b5b9060005260206000200160009054906101000a900473ffffffffffffffffffffffffffffffffffffffff166040518263ffffffff1660e01b8152600401610ee69190611c58565b60006040518083038186803b158015610efe57600080fd5b505afa158015610f12573d6000803e3d6000fd5b505050506040513d6000823e3d601f19601f82011682018060405250810190610f3b91906117ab565b94505050505068056bc75e2d63100000811115610f5f5768056bc75e2d6310000090505b8068056bc75e2d63100000610f749190611ffa565b6004600060038581548110610f8c57610f8b61226f565b5b9060005260206000200160009054906101000a900473ffffffffffffffffffffffffffffffffffffffff1673ffffffffffffffffffffffffffffffffffffffff1673ffffffffffffffffffffffffffffffffffffffff16815260200190815260200160002054610ffc9190611fa0565b856110079190611f19565b945080836110159190611f19565b92505080806110239061216a565b915050610e3e565b5080670de0b6b3a764000060038054905060646110489190611fa0565b6110529190611fa0565b61105c9190611ffa565b915060008214156110735760009350505050611085565b818361107f9190611f6f565b93505050505b90565b600760009054906101000a900473ffffffffffffffffffffffffffffffffffffffff1681565b6110b66114a8565b60006040518060e001604052803073ffffffffffffffffffffffffffffffffffffffff168152602001600080546110ec90612107565b80601f016020809104026020016040519081016040528092919081815260200182805461111890612107565b80156111655780601f1061113a57610100808354040283529160200191611165565b820191906000526020600020905b81548152906001019060200180831161114857829003601f168201915b505050505081526020016001805461117c90612107565b80601f01602080910402602001604051908101604052809291908181526020018280546111a890612107565b80156111f55780601f106111ca576101008083540402835291602001916111f5565b820191906000526020600020905b8154815290600101906020018083116111d857829003601f168201915b505050505081526020016002805480602002602001604051908101604052809291908181526020016000905b828210156112cd57838290600052602060002001805461124090612107565b80601f016020809104026020016040519081016040528092919081815260200182805461126c90612107565b80156112b95780601f1061128e576101008083540402835291602001916112b9565b820191906000526020600020905b81548152906001019060200180831161129c57829003601f168201915b505050505081526020019060010190611221565b50505050815260200160065481526020016005548152602001600860149054906101000a900460ff16600181111561130857611307612211565b5b81525090508091505090565b6000806006541161132457600080fd5b6000826006541015611343576006548361133e9190611ffa565b611352565b826006546113519190611ffa565b5b9050600654670de0b6b3a764000060648361136d9190611fa0565b6113779190611fa0565b6113819190611f6f565b915050919050565b60006001836113989190611f19565b8284866113a59190611fa0565b6113af9190611f19565b6113b99190611f6f565b90509392505050565b8280546113ce90612107565b90600052602060002090601f0160209004810192826113f05760008555611437565b82601f1061140957805160ff1916838001178555611437565b82800160010185558215611437579182015b8281111561143657825182559160200191906001019061141b565b5b509050611444919061150d565b5090565b828054828255906000526020600020908101928215611497579160200282015b828111156114965782518290805190602001906114869291906113c2565b5091602001919060010190611468565b5b5090506114a4919061152a565b5090565b6040518060e00160405280600073ffffffffffffffffffffffffffffffffffffffff16815260200160608152602001606081526020016060815260200160008152602001600081526020016000600181111561150757611506612211565b5b81525090565b5b8082111561152657600081600090555060010161150e565b5090565b5b8082111561154a5760008181611541919061154e565b5060010161152b565b5090565b50805461155a90612107565b6000825580601f1061156c575061158b565b601f01602090049060005260206000209081019061158a919061150d565b5b50565b60006115a161159c84611e56565b611e31565b905080838252602082019050828560208602820111156115c4576115c36122d2565b5b60005b8581101561161257813567ffffffffffffffff8111156115ea576115e96122cd565b5b8086016115f789826116f8565b855260208501945060208401935050506001810190506115c7565b5050509392505050565b600061162f61162a84611e82565b611e31565b90508281526020810184848401111561164b5761164a6122d7565b5b6116568482856120c5565b509392505050565b600061167161166c84611e82565b611e31565b90508281526020810184848401111561168d5761168c6122d7565b5b6116988482856120d4565b509392505050565b6000813590506116af81612479565b92915050565b6000815190506116c481612479565b92915050565b600082601f8301126116df576116de6122cd565b5b81356116ef84826020860161158e565b91505092915050565b600082601f83011261170d5761170c6122cd565b5b813561171d84826020860161161c565b91505092915050565b600082601f83011261173b5761173a6122cd565b5b815161174b84826020860161165e565b91505092915050565b60008135905061176381612490565b92915050565b60008151905061177881612490565b92915050565b600060208284031215611794576117936122e1565b5b60006117a2848285016116a0565b91505092915050565b600080600080600060a086880312156117c7576117c66122e1565b5b60006117d5888289016116b5565b955050602086015167ffffffffffffffff8111156117f6576117f56122dc565b5b61180288828901611726565b945050604086015167ffffffffffffffff811115611823576118226122dc565b5b61182f88828901611726565b935050606061184088828901611769565b925050608061185188828901611769565b9150509295509295909350565b600080600060608486031215611877576118766122e1565b5b600084013567ffffffffffffffff811115611895576118946122dc565b5b6118a1868287016116f8565b935050602084013567ffffffffffffffff8111156118c2576118c16122dc565b5b6118ce868287016116f8565b925050604084013567ffffffffffffffff8111156118ef576118ee6122dc565b5b6118fb868287016116ca565b9150509250925092565b60006020828403121561191b5761191a6122e1565b5b600061192984828501611754565b91505092915050565b600061193e8383611a06565b905092915050565b61194f8161202e565b82525050565b61195e8161202e565b82525050565b600061196f82611ec3565b6119798185611ee6565b93508360208202850161198b85611eb3565b8060005b858110156119c757848403895281516119a88582611932565b94506119b383611ed9565b925060208a0199505060018101905061198f565b50829750879550505050505092915050565b6119e28161207d565b82525050565b6119f18161208f565b82525050565b611a008161208f565b82525050565b6000611a1182611ece565b611a1b8185611ef7565b9350611a2b8185602086016120d4565b611a34816122e6565b840191505092915050565b6000611a4a82611ece565b611a548185611f08565b9350611a648185602086016120d4565b611a6d816122e6565b840191505092915050565b6000611a85602483611f08565b9150611a90826122f7565b604082019050919050565b6000611aa8600e83611f08565b9150611ab382612346565b602082019050919050565b6000611acb600a83611f08565b9150611ad68261236f565b602082019050919050565b6000611aee600e83611f08565b9150611af982612398565b602082019050919050565b6000611b11601983611f08565b9150611b1c826123c1565b602082019050919050565b6000611b34601283611f08565b9150611b3f826123ea565b602082019050919050565b6000611b57600b83611f08565b9150611b6282612413565b602082019050919050565b6000611b7a601183611f08565b9150611b858261243c565b602082019050919050565b600060e083016000830151611ba86000860182611946565b5060208301518482036020860152611bc08282611a06565b91505060408301518482036040860152611bda8282611a06565b91505060608301518482036060860152611bf48282611964565b9150506080830151611c096080860182611c3a565b5060a0830151611c1c60a0860182611c3a565b5060c0830151611c2f60c08601826119e8565b508091505092915050565b611c4381612073565b82525050565b611c5281612073565b82525050565b6000602082019050611c6d6000830184611955565b92915050565b6000604082019050611c886000830185611955565b611c956020830184611c49565b9392505050565b6000602082019050611cb160008301846119d9565b92915050565b6000602082019050611ccc60008301846119f7565b92915050565b60006020820190508181036000830152611cec8184611a3f565b905092915050565b60006020820190508181036000830152611d0d81611a78565b9050919050565b60006020820190508181036000830152611d2d81611a9b565b9050919050565b60006020820190508181036000830152611d4d81611abe565b9050919050565b60006020820190508181036000830152611d6d81611ae1565b9050919050565b60006020820190508181036000830152611d8d81611b04565b9050919050565b60006020820190508181036000830152611dad81611b27565b9050919050565b60006020820190508181036000830152611dcd81611b4a565b9050919050565b60006020820190508181036000830152611ded81611b6d565b9050919050565b60006020820190508181036000830152611e0e8184611b90565b905092915050565b6000602082019050611e2b6000830184611c49565b92915050565b6000611e3b611e4c565b9050611e478282612139565b919050565b6000604051905090565b600067ffffffffffffffff821115611e7157611e7061229e565b5b602082029050602081019050919050565b600067ffffffffffffffff821115611e9d57611e9c61229e565b5b611ea6826122e6565b9050602081019050919050565b6000819050602082019050919050565b600081519050919050565b600081519050919050565b6000602082019050919050565b600082825260208201905092915050565b600082825260208201905092915050565b600082825260208201905092915050565b6000611f2482612073565b9150611f2f83612073565b9250827fffffffffffffffffffffffffffffffffffffffffffffffffffffffffffffffff03821115611f6457611f636121b3565b5b828201905092915050565b6000611f7a82612073565b9150611f8583612073565b925082611f9557611f946121e2565b5b828204905092915050565b6000611fab82612073565b9150611fb683612073565b9250817fffffffffffffffffffffffffffffffffffffffffffffffffffffffffffffffff0483118215151615611fef57611fee6121b3565b5b828202905092915050565b600061200582612073565b915061201083612073565b925082821015612023576120226121b3565b5b828203905092915050565b600061203982612053565b9050919050565b600081905061204e82612465565b919050565b600073ffffffffffffffffffffffffffffffffffffffff82169050919050565b6000819050919050565b6000612088826120a1565b9050919050565b600061209a82612040565b9050919050565b60006120ac826120b3565b9050919050565b60006120be82612053565b9050919050565b82818337600083830152505050565b60005b838110156120f25780820151818401526020810190506120d7565b83811115612101576000848401525b50505050565b6000600282049050600182168061211f57607f821691505b6020821081141561213357612132612240565b5b50919050565b612142826122e6565b810181811067ffffffffffffffff821117156121615761216061229e565b5b80604052505050565b600061217582612073565b91507fffffffffffffffffffffffffffffffffffffffffffffffffffffffffffffffff8214156121a8576121a76121b3565b5b600182019050919050565b7f4e487b7100000000000000000000000000000000000000000000000000000000600052601160045260246000fd5b7f4e487b7100000000000000000000000000000000000000000000000000000000600052601260045260246000fd5b7f4e487b7100000000000000000000000000000000000000000000000000000000600052602160045260246000fd5b7f4e487b7100000000000000000000000000000000000000000000000000000000600052602260045260246000fd5b7f4e487b7100000000000000000000000000000000000000000000000000000000600052603260045260246000fd5b7f4e487b7100000000000000000000000000000000000000000000000000000000600052604160045260246000fd5b600080fd5b600080fd5b600080fd5b600080fd5b600080fd5b6000601f19601f8301169050919050565b7f5061727469636970616e7473206e65656420746f206265206c6573732074686160008201527f6e20313000000000000000000000000000000000000000000000000000000000602082015250565b7f4e6f742072656769737465726564000000000000000000000000000000000000600082015250565b7f6f6e6c792061646d696e00000000000000000000000000000000000000000000600082015250565b7f4e6f207061727469636970616e74000000000000000000000000000000000000600082015250565b7f5072696365206d7573742067726561746572207468616e203000000000000000600082015250565b7f4f6e6c79206d61696e20636f6e74726163740000000000000000000000000000600082015250565b7f57726f6e67207374617465000000000000000000000000000000000000000000600082015250565b7f53657373696f6e20697320636c6f736564000000000000000000000000000000600082015250565b6002811061247657612475612211565b5b50565b6124828161202e565b811461248d57600080fd5b50565b61249981612073565b81146124a457600080fd5b5056fea26469706673582212206b771675ed83c4302b09cc8e356817129eada25c557f5d17bb610b7c1fa44a7064736f6c63430008070033a264697066735822122085872022d69299c71119f7e94ddca5e40e6614bf85077528d3a94f0eda27c8e264736f6c63430008070033",
  "devdoc": {
    "kind": "dev",
    "methods": {},
    "version": 1
  },
  "userdoc": {
    "kind": "user",
    "methods": {},
    "version": 1
  },
  "storageLayout": {
    "storage": [
      {
        "astId": 6,
        "contract": "contracts/Main.sol:Main",
        "label": "participantKeys",
        "offset": 0,
        "slot": "0",
        "type": "t_array(t_address)dyn_storage"
      },
      {
        "astId": 11,
        "contract": "contracts/Main.sol:Main",
        "label": "participants",
        "offset": 0,
        "slot": "1",
        "type": "t_mapping(t_address,t_struct(Participant)967_storage)"
      },
      {
        "astId": 15,
        "contract": "contracts/Main.sol:Main",
        "label": "isSession",
        "offset": 0,
        "slot": "2",
        "type": "t_mapping(t_address,t_bool)"
      },
      {
        "astId": 19,
        "contract": "contracts/Main.sol:Main",
        "label": "sessions",
        "offset": 0,
        "slot": "3",
        "type": "t_array(t_contract(Session)951)dyn_storage"
      },
      {
        "astId": 21,
        "contract": "contracts/Main.sol:Main",
        "label": "admin",
        "offset": 0,
        "slot": "4",
        "type": "t_address"
      }
    ],
    "types": {
      "t_address": {
        "encoding": "inplace",
        "label": "address",
        "numberOfBytes": "20"
      },
      "t_array(t_address)dyn_storage": {
        "base": "t_address",
        "encoding": "dynamic_array",
        "label": "address[]",
        "numberOfBytes": "32"
      },
      "t_array(t_contract(Session)951)dyn_storage": {
        "base": "t_contract(Session)951",
        "encoding": "dynamic_array",
        "label": "contract Session[]",
        "numberOfBytes": "32"
      },
      "t_bool": {
        "encoding": "inplace",
        "label": "bool",
        "numberOfBytes": "1"
      },
      "t_contract(Session)951": {
        "encoding": "inplace",
        "label": "contract Session",
        "numberOfBytes": "20"
      },
      "t_mapping(t_address,t_bool)": {
        "encoding": "mapping",
        "key": "t_address",
        "label": "mapping(address => bool)",
        "numberOfBytes": "32",
        "value": "t_bool"
      },
      "t_mapping(t_address,t_struct(Participant)967_storage)": {
        "encoding": "mapping",
        "key": "t_address",
        "label": "mapping(address => struct Participant)",
        "numberOfBytes": "32",
        "value": "t_struct(Participant)967_storage"
      },
      "t_string_storage": {
        "encoding": "bytes",
        "label": "string",
        "numberOfBytes": "32"
      },
      "t_struct(Participant)967_storage": {
        "encoding": "inplace",
        "label": "struct Participant",
        "members": [
          {
            "astId": 958,
            "contract": "contracts/Main.sol:Main",
            "label": "account",
            "offset": 0,
            "slot": "0",
            "type": "t_address"
          },
          {
            "astId": 960,
            "contract": "contracts/Main.sol:Main",
            "label": "fullName",
            "offset": 0,
            "slot": "1",
            "type": "t_string_storage"
          },
          {
            "astId": 962,
            "contract": "contracts/Main.sol:Main",
            "label": "email",
            "offset": 0,
            "slot": "2",
            "type": "t_string_storage"
          },
          {
            "astId": 964,
            "contract": "contracts/Main.sol:Main",
            "label": "numberOfJoinedSession",
            "offset": 0,
            "slot": "3",
            "type": "t_uint256"
          },
          {
            "astId": 966,
            "contract": "contracts/Main.sol:Main",
            "label": "deviation",
            "offset": 0,
            "slot": "4",
            "type": "t_uint256"
          }
        ],
        "numberOfBytes": "160"
      },
      "t_uint256": {
        "encoding": "inplace",
        "label": "uint256",
        "numberOfBytes": "32"
      }
    }
  }
}